:020000040800F2
:100000007C020020218200088D0100087D0100088B
:100010008101000885010008890100080000000036
:100020000000000000000000000000009101000836
:100030009501000800000000990100089D010008DA
:1000400069820008698200086982000869820008E4
:1000500069820008698200086982000869820008D4
:1000600069820008698200086982000869820008C4
:1000700069820008698200086982000869820008B4
:1000800069820008698200086982000869820008A4
:100090006982000869820008698200086982000894
:1000A00069820008C10100086982000869820008AD
:1000B0006982000869820008698200086982000874
:1000C0006982000869820008698200086982000864
:1000D0006982000869820008698200086982000854
:1000E0006982000869820008698200080000000037
:1000F0000000000000000000000000000000000000
:1001000000000000000000005FF808F130B40B4B65
:10011000054618682C4644F8040B988800222B46A4
:1001200013F8011B0A44A34292B2F9D1904202D0C3
:1001300000232B806B8030BC704700BF00BC0108DF
:1001400038B50546044607F077FD0A4807F0B4FDC8
:1001500055F8041B074807F0D1FD002114F8013BB6
:100160001944AC4289B2F9D10348BDE8384007F0E0
:10017000F5BD00BF00BC010804BC0108FEE700BFDC
:10018000FEE700BFFEE700BFFEE700BF704700BF0D
:10019000704700BF704700BF704700BF08B50648F2
:1001A00001F0BAF9054B9A6812F4006F4FF0200283
:1001B00014BF1A615A6108BD88020020000C01407A
:1001C0002DE9F843544B1A8AD20701D4BDE8F883CD
:1001D000524C4FF6FE7122791982002A46D161886D
:1001E0000123490A4E48237108F014F861884C48ED
:1001F000C1F3860108F010F82379002BE6D04949B5
:10020000494B4A4A8E68996892F84100484B11F46C
:10021000805F0CBF0227002792F8401000281A6B5D
:100220000CBF0025022586F40066586B2943C6F3EF
:10023000C026551C3E4300EB4000032D46EA010654
:1002400003EBC00005D95F6BD51E013707F001072E
:100250005F631D63374BF7071D7805F0010513D465
:10026000002D48D04FF0040CE14611E02188002316
:10027000490A2B48237107F0C9FF21882848C1F398
:10028000860107F0C5FFB7E78DBB4FF0030CE146D1
:1002900000EB4207B7F808805D78B60783F8009056
:1002A000A4F8008005F0010528D46DB304252E467E
:1002B0004FF0400811F0010F0CBF4FF000094FF054
:1002C000080911F0020F48EA0C0C0CBF4FF00008AF
:1002D0004FF008083F8A4CEA090C811848EA0505E6
:1002E00000F802C05E700D716780BDE8F8834FF0C2
:1002F000010CE146CCE7AC46A946C9E73DB1012572
:100300002E464FF01008D5E7A8462E46D2E7032523
:100310002E464FF03008CDE7002C01401C04002091
:1003200000080040000C0140000801408802002045
:1003300024040020640400202DE9F0478246274869
:10034000894604F06FFD264FDFF89080254D4FEA77
:100350004906002498F88C315BB3A919A94205D04D
:10036000204A002322F8023B9142FAD12B8808EB65
:100370000402A2F87231B9F1000F13D01A4A0AEB45
:10038000840CA05E00221BB2C3F5FF437F330CEB4D
:1003900002010344023283F31003B2420B8101D005
:1003A000AB5AF0E70234042C07F5A467D2D1BDE8BC
:1003B000F087BB690AEB4401DA0709D55B10FA58EC
:1003C000F8187B6952F803C0064A4B46E047CDE770
:1003D00007EB6300D7F814C0F6E700BF88020020DF
:1003E000680400207C020020840200202DE9F043F4
:1003F000DFF8389189B040F2ED214846002204F040
:1004000039FF424B0025424F4248434C1D6004F0E7
:100410000DFE424B4FF4707C4FF0030E1822012664
:1004200069463846ADF800C08DF802E08DF803202B
:100430005D631D639E6307F0ADFC7F232046ADF82E
:100440000830ADF80450ADF80A50ADF806508DF8FC
:100450000C5007F0AFFE204601A907F06BFD6023AA
:10046000204604A9ADF81030ADF81260ADF8165072
:10047000ADF8185007F082FD2046082107F0A2FED3
:10048000204604A907F0B8FD2046082107F0A2FE87
:10049000204604A907F0F8FD2046082107F0A4FE35
:1004A000204604A907F038FE2046082107F0A4FEE4
:1004B000314620461A4C07F065FEDFF87480194B70
:1004C00020461D71FFF722FE2946404600F0C2FC7F
:1004D00008F5A460314600F0BDFC2146124803F047
:1004E00089F820240222102304A938468DF812200E
:1004F0008DF81330ADF8104007F04CFC3C614846D5
:1005000004F008FF09B0BDE8F08300BFA80E00208A
:10051000000C01406004002000080040240400207A
:10052000840200201C0400208802002018040020FF
:100530006804002008B5FFF759FF0D4C0D4804F082
:100540009DFCA26B636B9A42F8D0A06B042100EB78
:10055000400004EBC000FFF7EFFEA36B013303F094
:100560000103A363A26B636B9A42EED1E6E700BF7F
:100570002404002088020020012A2DE9F00131D056
:10058000B1F80480B1F800C04F88CE880023022162
:1005900001224FEA6808032447F6FF75A0F8288077
:1005A000A0F834C0C7860687A0F85C40A0F85E10AB
:1005B00080F8441083844385A0F86230A0F860304E
:1005C000C58480F8452080F84620B0F94C30A3421D
:1005D00005DD0023A0F84C304365A0F85030BDE89D
:1005E000F00170470E884D880023022447F6FF7102
:1005F0008686C58680F8442080F84520A0F85C40B7
:10060000A0F85E3083840385A0F86230A0F86030E3
:10061000C184DAE7012A30B430D0CB884C88C3F5E6
:100620007F43FF3303FB03F504FB04F48A882D0C9E
:10063000098802FB02F203FB05F3240CA1F500413B
:1006400004FB04F409B2C1EBC101920C9B0C09122A
:1006500002EB4202240E0125C3F5FF4301F5786148
:1006600002F50072C0F8B44180F8AC51C0F8CC116A
:10067000A0F8B031C0F8D02130BC70474B88098851
:10068000C3F57F43FF3303FB03F4491001F5005129
:10069000240C01FB01F103FB04F3890C01EB410184
:1006A0009B0C4FF47865232401F50071C3F5FF43DB
:1006B000C0F8CC51C0F8B441C0F8D01180F8AC21DA
:1006C000A0F8B03130BC7047704700BF012A0FD08E
:1006D0000B88A0F828334B885B10A0F82A338B884E
:1006E0005B10A0F82C33CB885B13A0F82E33704737
:1006F0000023A0F828330B885B10A0F82A330B885E
:100700005B1003F50063A0F82C334B885B13A0F853
:100710002E337047084B10B440F6FF712824002296
:10072000C0F88044C0F88834C0F88414C0F88C2421
:100730005DF8044B704700BF00C0FF3FF0B4002BD2
:1007400040D0D0F880C4D0F88C740B4413E0B5428C
:10075000C0F8945430DDD0F884542413644205FB6F
:1007600004F4994247F6FF75C0F89464C0F89044C9
:1007700022F8025B26D011F8015BD0F89064AD0737
:100780003C464EBFD0F888543446D0F89454CCEB55
:10079000040448BFC0F8945465190B4EC0F8904447
:1007A000D5D5D0F884542413644205FB04F4002505
:1007B000C0F89044C0F89454C5F3CF35994222F85C
:1007C000025BD8D1F0BC70470080FF3F012A70B4B3
:1007D000264A0C884B8826D02512961CC3F57F43E9
:1007E00032F8152036F81550FF33AD1AE4B203FB8A
:1007F00003F304FB05F4CD881B0D8988A5F500459E
:1008000002EB2422C3F57F632DB22D0192B20F3388
:100810008903C0F88C54C0F88024C0F88434C0F830
:10082000881470BC70472112951CC3F57F4332F8C1
:10083000112035F81110FF33891A03FB03F3E4B2DA
:1008400004FB01F41B0D02EB2422094DC3F57F6369
:100850000F3392B20021C0F88854C0F88434C0F835
:100860008024C0F88C1470BC704700BFE83A0108BF
:1008700000C0FF3F10B400F29A4200F2A2440023ED
:1008800022F8023B9442FAD1042280F8993480F88D
:10089000A23480F898245DF8044B704770B463B3B9
:1008A0000B4411F8016B90F89944B5070BD501344E
:1008B00090F8A254E4B280F8994425B1002480F85D
:1008C000A24480F8994490F89854022D04D9B606B1
:1008D00044BF012680F8A264A5429CBF002480F892
:1008E000994400EB4404B4F99A44994204EB84041B
:1008F00044F3CF0422F8024BD3D170BC704700BF41
:100900000B88012AA3F50043B0F89A249BB225D0A6
:10091000934218BFA0F89A344B88B0F89C24A3F5F2
:1009200000439BB2934218BFA0F89C348B88B0F868
:100930009E24A3F500439BB2934218BFA0F89E34B7
:10094000CB88B0F8A024A3F500439BB2934218BF14
:10095000A0F8A034042380F898347047934218BF5D
:10096000A0F89A344B88B0F89C24A3F500439BB2BE
:10097000934218BFA0F89C34022380F89834704743
:100980000B88012A4FEA930210B4A2F5C044A0F8E4
:10099000A4441FD01C044ABF5A1002F5C04202F5FD
:1009A000804292B2A0F8A6244B885DF8044BA0F8D0
:1009B000A834CB888A8803EB4301C3EB4133D210C0
:1009C0001B0C02F5807203F50053C0F8B024C0F888
:1009D000AC3470471C044ABF5A1002F5C04202F5FD
:1009E000804292B2A0F8A62449884FF4885244F677
:1009F000FF73A0F8A814C0F8B024C0F8AC345DF8B8
:100A0000044B704700F2A44006F04AB900F2A4403B
:100A100006F024B900F2344006F016BD00F234406E
:100A200006F0FABC00F54A7006F0F4BD00F54A7015
:100A300006F0DCBD012A0B4649D00A88B2F5804F8A
:100A400032D9B2F5004F9ABF1111C1F500610021F2
:100A5000A0F8021302EBC202920902F54062A0F86C
:100A600004235A88921002EB4202C2F38D02A0F8CE
:100A700006239A885110921002F5005201F5804128
:100A8000A0F80A23A0F80813DB881A0411D4C3F5D0
:100A9000FF437F3303FB03F30022C3F38F33A0F83C
:100AA0000C23A0F80E3370474FF48061A0F80213B6
:100AB000D0E7A3F5004303FB03F3C3F34D4303EB7C
:100AC0008303A0F80C330023A0F80E33704700F521
:100AD000407009885A8804F0C9BD00BF00F5407015
:100AE00004F070BE00F5407004F0B8BD00F525704C
:100AF00004F0B6BF00F5257004F094BF00F5EC706B
:100B000005F088BA00F5EC7005F02CBA00F5B87065
:100B100004F050BC00F5B87004F016BC012A10B502
:100B200090F8783004462BD0B3B90B884FF4A0422C
:100B3000A0F8683088884B88A0F50040A4F86C00C5
:100B4000C98803EB8303A1F5004109041B14216745
:100B500084F86A30626710BD8A884B88A2F500422B
:100B60000888A4F86C20CA8803EB8303A2F500422E
:100B7000411012041B146167226784F86A3010BDAB
:100B800083B10B884A8803EB83031B14A2F5004250
:100B900080F86A30A0F86C2000224FF4A04322674E
:100BA000636710BD0B8820F8683F498805F098FE00
:100BB000F2E700BF683005F0A5BE00BF683005F061
:100BC00063BE00BF243005F08FBF00BF243005F0A6
:100BD00065BF00BF012A0DD00B88A0F836344B88C2
:100BE000A0F834348B885B10A0F83834CB88A0F898
:100BF0003A3470474FF6FF73A0F836340B88002262
:100C0000A0F834344B88A0F83A245B10A0F83834AC
:100C1000704700BF012A70B453D00B8890F8682247
:100C2000A3F500431BB2C3EBC303C3F30F2303F5C8
:100C3000D05503F5005403F54853A0F82A52A0F804
:100C40004A429BB2002A3AD1B0F86A525D1B18BFE3
:100C50000125A0F86A328C884B886408B4F5E04F0F
:100C600038BF04F500744FEAA303C3F5AB4234BFA9
:100C7000A4B24FF4E4447032A0F8904203F5AB43C1
:100C8000C0F88822CA887033C0F88C325309941394
:100C900003F5E24203F5CF43012104F6FC74483228
:100CA000043380F86852C0F81842A0F82C22A0F84B
:100CB0004C3280F8281280F8481270BC7047012529
:100CC000C7E790F868324FF4D0554FF40054A0F8BD
:100CD0002A52A0F84A422BB9B0F96A22B2F548521A
:100CE00018BF01224FF4485547F2485446F6843362
:100CF000A0F82C42A0F86A52A0F84C324D880B881C
:100D00006D08B5F5E04F4FEAA30338BF05F5007550
:100D1000C3F5AB4103F5AB434FF0010440F6FE765B
:100D200034BFADB24FF4E4457031703380F82842DF
:100D300080F84842C0F81862A0F8905280F8682203
:100D4000C0F88812C0F88C3270BC7047F8B5044601
:100D500090F878200F4661700239D1F1000E5EEBF9
:100D6000010EDAB9BEF1000F18D000F18003C0F80F
:100D7000482103F18002002043F8040B9A42FAD183
:100D800004F59273002042F8040B9342FAD104F563
:100D9000A471002243F8042B9942FAD12C4B07EBA3
:100DA000470603EBC60604F10C0584F878E00FCE85
:100DB0000FC596E80300022F85E803002AD02069BA
:100DC000C20733D540102258E3682044D3589847CF
:100DD00063781A1FD2B2012A1CD82278002A2FD099
:100DE0006088A5884FF6E751884209D98D422AD9F3
:100DF000052B10D020460521FFF7A8FF22780AE036
:100E00004FF6F43188421ED8042B04D0204604212A
:100E1000FFF79CFF2278206AC3070BD540102158AA
:100E2000E3692044CB58A11C9847F8BD04EB60004F
:100E3000E368CCE704EB6000E369A11C9847F8BDC8
:100E4000A088E588CEE74FF6F4318D42E3D8DBE7A2
:100E5000CC8300082DE9F843B04E05460F46002428
:100E600007E0E35805EB600018349847B4F5907F2D
:100E70000ED033195868A94BC107F2D54010E3587A
:100E80002A5818342844D3589847B4F5907FF0D1A5
:100E900005F5B87004F058FA7A1ED2F1000805F58D
:100EA000EC7058EB020805F05DF805F5407004F0B1
:100EB000D5FB05F5257085F8008304F0B3FD98484F
:100EC000282140F6FF720023C5F88014C5F8842459
:100ED000C5F88C34C5F8880405F1680005F0D4FC29
:100EE00005F1240005F0DAFD05F54A7006F07EFBF9
:100EF00005F2344006F090FA05F29A4205F2A2415A
:100F0000002322F8023B91421C46F9D1042205F14C
:100F10000C09824F85F8993485F8A23485F8982415
:100F200005F2A4404E4605F099FE0FCF85F8DC840B
:100F30002C706C7085F878400FC697E8030086E83F
:100F400003002869C3071DD4EB6805EB60009847D0
:100F50006B781A1FD2B2012A2A781DD9AC1C286AD4
:100F6000C30715D540102958EB692844CB582146B2
:100F700098470A354FF4004324F8023BA542F9D1C3
:100F8000BDE8F88340102A58EB682844D358DEE7C0
:100F900005EB6000EB69EAE7002A3AD069884FF672
:100FA000E7508142AC883AD9844269D9052BD5D023
:100FB0005C4E00274FF0050E4C460FCE85F878703A
:100FC00085F801E00FC496E8030084E803002B696C
:100FD000DF0700F19C80EA6805EB630090476B78BF
:100FE0001A1FD2B2012A3DD82A78002A40F0AA80DE
:100FF000A888E9884FF6E754A04240F29780A142C2
:101000007FD9052B00F0818028460521FFF79EFE41
:1010100028E0A9884FF6E7508142EC88C4D84FF603
:10102000F43081422CD8042B98D03F4E4FF0040E60
:1010300000274C460FCE85F801E085F878700FC484
:1010400096E8030084E803002B69DE071DD55B10DA
:10105000E958EA68E8188A5890476B781A1FD2B2A4
:10106000012A1AD92A78AC1C2B6AD90711D55B1032
:10107000EE58E969E81876582146B0472A786EE7B5
:101080004FF6F4318C42CED968E705EB6300EA688D
:10109000E2E705EB6300EE69EEE72A78002A4ED11D
:1010A000A888E9884FF6E754A0423FD9A14228D941
:1010B000052B2AD01B4C052700260FCC6F7085F816
:1010C0007860A9E80F0094E8030089E803002B6921
:1010D000DC073AD4EA6805EB630090476B781A1F87
:1010E000D2B2012A2A783AD92B6AD80733D55B10B5
:1010F000EC58E969E8186658AC1C2146B0472A78D4
:10110000B2E74FF6F430814214D9AC1CACE75B1067
:10111000E958EA68E8188A5860E700BFCC830008FD
:1011200000C0FF3F448400082C8400084FF6F434CC
:10113000A042E6D8042BE8D01B4C0427BCE7688803
:10114000A988AFE76888A98854E75B10E958EA687E
:10115000E8188A58C1E705EB6300EE69CCE78AB965
:10116000A888E9884FF6E754A0420ED84FF6F43429
:10117000A04214D8042BB7D028460421FFF7E6FD7F
:101180002A78B1E76888A988ECE7A14207D9052B3E
:10119000AAD028460521FFF7D9FD2A78A4E74FF603
:1011A000F4308142A0D8E5E72C840008F8B54378F4
:1011B00004461A1FD2B2012A13D9054615F8022B8C
:1011C000206AC30707D540102158E3692044CB5853
:1011D00029469847F8BD04EB6000E3692946984723
:1011E000F8BD0278002A36D0418885884FF6E7504E
:1011F000814236D985425AD9052B5CD004F10C07BF
:101200007F4E3D464FF0050C4FF0000E0FCE84F898
:1012100001C084F878E00FC596E8030085E8030074
:101220002069C6074DD4E36804EB600098476378F3
:101230001A1FD2B2012A4ED9254615F8022B236A6D
:10124000D90744D55B10E658E169E018765829467D
:10125000B0472278B4E78188C5884FF6E7508142CD
:10126000C8D84FF6F430814221D8042B23D0654EE4
:101270004FF0040E002704F10C050FCE84F801E0B6
:1012800084F878700FC596E8030085E803002069AC
:10129000C20712D540102258E3682044D35898471B
:1012A00025462046FFF782FF15F8022B88E74FF608
:1012B000F4318D42D9D9A51C82E704EB6000E368C4
:1012C000EDE740102258E3682044D358AEE704EB22
:1012D0006300E669BBE72278BAB9A088E5884FF6D3
:1012E000E751884214D98D4209D9052B0BD02046ED
:1012F00005212546FFF72AFD15F8022B9FE74FF63B
:10130000F4318D4208D9A51C99E76088A588E6E7E5
:101310004FF6F4318842F2D8042BF4D0394E4FF016
:10132000040C4FF0000E3D460FCE84F801C084F847
:1013300078E00FC596E8030085E803002369DD0720
:1013400016D4E26804EB6300904763781A1FD2B2A8
:10135000012A227816D9236AD8070FD55B10E558E1
:10136000E169E0186E58A51C2946B047227866E767
:101370005B10E158E268E0188A58E5E704EB630087
:10138000E669F0E752BBA088E1884FF6E755A8422E
:1013900027D84FF6F435A8422DD8042BDBD0194DB1
:1013A0004FF0040E00260FCD84F801E084F8786039
:1013B0000FC795E8030087E80300206910F0010FCC
:1013C0004FEA60001BBF2258E368E368D35820440B
:1013D00098472046FFF7EAFE2278BCE76088A1889C
:1013E000D3E7A94207D9052BB5D020460521FFF741
:1013F000ADFC2278AFE74FF6F4308142ABD8CCE7B2
:10140000448400082C8400082DE9F047064696F82D
:10141000611190F8600196F86231082286F8641133
:1014200086F8630186F8653106F5BC711AB106F5D8
:10143000B37006F01BFFB6F87091304C4FEA0919F3
:101440002F4B4C449C4206F2631534D90023A6F876
:10145000703106F0F1FB2B4C204606F02DFC2A4B98
:1014600004F580649C42F7D1284FDFF8A880254C12
:10147000B946C4EB050A20465AF80410043406F0B5
:101480003DFC4C45F7D106F26F12002115F8013BE7
:101490001944954289B2F9D1384606F05FFC4046BE
:1014A000B6F8701106F05AFCB6F870310133A6F8A0
:1014B0007031BDE8F08706F0BFFB154B24F47F7058
:1014C0004B4423F47F7320F0030023F0030309F15E
:1014D0000064834204F5E03407D004F10C0906F0FF
:1014E000EBFB4F4604F10E08C3E7DFF82880074FF7
:1014F000C8444F4404F10C09BBE700BF10C0010809
:10150000FFFF010800C00108000002080CC001082C
:10151000FFBF01080EC001082DE9F04FDFF89493DA
:1015200000F5AA78D9F800300446013383B040466C
:10153000C9F8003003F06CFE2646002518F8017B40
:10154000802F6BD0002F40F08680336B1BB1EAB246
:10155000012A40F2D6800135042D06F10406EDD1B2
:1015600094F88C31002B40F0AD8094F86031D9F8BC
:101570000020022BC2F3C212CE4900F08C80032B54
:1015800040F0F180012A02D0D01E42424241D9F8F7
:10159000001084F85121C90540F1F68094F86221C9
:1015A000032A00F28580032B00F0EE8094F861316D
:1015B000194603F00303012202FA03F384F85031C1
:1015C0002346002201AD0139C9B206294FF00100BE
:1015D00009D800FA01F111F00B0F40F0858011F0ED
:1015E000440F40F0C980B3F97211C911A9540233F4
:1015F000002A63D0B04B5A780B2A00F0CA809DF8BD
:1016000004209DF8053084F8522184F8533104F504
:10161000A87003F091FD03B0BDE8F08FD4F84C3111
:1016200004F14801581C01EBC30200274FF0040EDF
:1016300000F01F0001F833E055805760C4F84C01FA
:10164000D9F80030D9F800206364326318F8017CBF
:10165000002F3FF47AAF7F2F7FF47DAF336B002BE9
:101660003FF479AFD9F80010D4F84C21013104F1DE
:101670004800571CCB1A4FF0040E00EBC20107F0D4
:101680001F0700F832E04B604D80C4F84C71D9F868
:10169000003063645FE7551E09686A426A41CE05FF
:1016A00084F8512182D594F86121032A7FF67BAF1B
:1016B000102384F8503194F8611181E794F8621195
:1016C000012280E700230F21012284F8501184F8C1
:1016D000512184F8523184F8533104F5A87003F095
:1016E0002BFD03B0BDE8F08FB3F9721140F29910F1
:1016F00000FB01F1091201F50041A1F30821A954F1
:1017000075E7D9F800006B49C31AB3F5167F7FF768
:1017100022AFC2F10102D2B2224492F8542162B93E
:1017200094F8773167630133DBB2032B276384F8C6
:1017300077313ED018F8017C8DE7D4F84C2104F1C4
:10174000480E02F1010C0EEBC2004FF0040A0CF03F
:101750001F0C0EF832A043604580C4F84CC10B68E2
:1017600063643763E6E70A6803F00101D20584F891
:1017700051117FF518AF96E7B3F972110029B8BF80
:1017800049420912A95432E794F8623194F8611180
:101790000FE793F8D41993F8B4244A4084F8502101
:1017A00093F8DD2493F8FD3952425B42D2B2DBB2AA
:1017B00029E7DFF804A1DFF80CC10AF10C0EBCE840
:1017C0000F00AEE80F009CE80300DAF810300B229F
:1017D0008AF80120DA0784F877718AF878708EE841
:1017E000030059D55B1053F80A10DAF80C2003EB0C
:1017F0000A008A5890479AF801102F4B0A1FD2B25C
:10180000012A1A7840F2B580DAF820102A4BC8076E
:101810005FD5491051F803E0DF69C8185EF807305A
:1018200026499847DFF890C0DFF898E00CF22C5773
:10183000BEE80F000FC79EE80300DAF830354FF01E
:101840000B0E002287E80300D9078AF821E58AF801
:10185000982526D40CF5A467DCF82C2507EB63004B
:1018600090479AF82115144B0A1FD2B2012A93F817
:10187000202532D9DAF840350F49D80724D55B1036
:10188000D1F83C1557F803E0F8185EF801C00C4990
:10189000E04718F8017CDEE60AEB6300DAF80C207A
:1018A000A8E75B100CF5A467DCF82C25F958F818AC
:1018B0008A58D5E7A80E0020680400206A0400209A
:1018C0008A090020D4840008D1F83CC507EB6300E6
:1018D000DDE703EB6100DB69A2E7002A40F08F80BF
:1018E000B3F82405B3F826E54FF6E753984240F2E3
:1018F0008E809E4540F2E6800529BBD0DFF86CB3B0
:10190000DFF878C30BF22C5EBCE80F00AEE80F00E6
:101910009CE80300DAF8303500224FF0050C8AF815
:101920009825DA078EE803008AF821C500F1E480E3
:10193000DBF82C2507EB630090479AF82125CB4B69
:10194000111FC9B2012940F22081DAF84035C74A97
:10195000D90740F1E1805B10D2F83C25F958F8181E
:1019600051F802C09AF82025C149E0479AF820258D
:1019700080E7002A48D19888DF884FF6E7539842DD
:1019800070D99F4240F2988005293FF43DAFDFF8BF
:10199000DCC2DFF8E8E20CF10C07BEE80F000FC76D
:1019A0009EE80300DAF810304FF0050E002287E8B9
:1019B0000300DF078AF801E08AF8782000F1A380AD
:1019C000DCF80C200CEB630090479AF80120A74B41
:1019D000111FC9B2012940F2A480DAF82020A34BDC
:1019E000D10740F185805210D758D969D0187B585B
:1019F0009AF800209F4998479AF8002004E7B3F826
:101A00002205B3F824E56FE758889F88B5E74FF6BD
:101A1000F433984256D804293FF42CAFDFF84CB287
:101A2000DFF85CC20BF22C5EBCE80F00AEE80F00E2
:101A30009CE80300DAF8303500224FF0040C8AF8F5
:101A40009825DA078EE803008AF821C540D4DBF830
:101A50002C2507EB630090478748FFF7A7FB9AF810
:101A6000202507E74FF6F433984225D804293FF4A0
:101A7000CBAEDFF8F8C1DFF808E20CF10C07BEE8E6
:101A80000F000FC79EE80300DAF810304FF0040E85
:101A9000002287E80300DF078AF801E08AF878204F
:101AA0001DD4DCF80C200CEB630090476F48FFF767
:101AB0007DFB9AF80020A7E64FF6F4339F423FF6ED
:101AC000A3AED3E74FF6F4339E453FF6D3AEA2E77D
:101AD0005B10DBF82C25F958F8188A58BBE75B1027
:101AE00053F80C10DCF80C2003EB0C008A58DCE7F0
:101AF00003EB6200DB697BE75B10DBF82C25F95810
:101B0000F8188A5818E75B1053F80C10DCF80C2012
:101B100003EB0C008A5857E7D2F83CC507EB63008B
:101B200020E71978002940F082809988DB884FF6F9
:101B3000E750814271D84FF6F430814200F2A9801B
:101B4000042A3FF44AAFDFF824C1DFF834E10CF196
:101B50000C07BEE80F000FC79EE80300DAF810304C
:101B60004FF0040E002287E80300D8078AF801E04E
:101B70008AF8782000F18680DCF80C205810504458
:101B800090473A48FFF712FB27E793F82015002902
:101B90005AD1B3F82415B3F826354FF6E7508142F1
:101BA00048D84FF6F430814259D8042A3FF4CDAEDC
:101BB000DFF8B8B0DFF8C8C00BF22C5EBCE80F004D
:101BC000AEE80F009CE80300DAF830354FF0040C63
:101BD00000228EE80300D8078AF821C58AF89825E4
:101BE00037D4DBF82C255810384490479AF8212533
:101BF0001E4B111FC9B2012955D9DAF840051B4BFC
:101C0000C2074CD54010D3F83C253B589B5838446C
:101C100017499AF82025984797E6834239D9052A2B
:101C20003FF4DBAE11480521FFF790F8D5E659885F
:101C30009B887CE7834212D9052A3FF486AE0E4882
:101C40000521FFF783F880E6B3F82215B3F82435B1
:101C5000A3E75810DBF82C153A585258C4E74FF652
:101C6000F4318B423FF671AE9FE700BF680400205D
:101C70008A0900206A0400208809002044840008A2
:101C80002C84000858105CF80010DCF80C208A58EE
:101C900075E74FF6F4318B423FF69FAE50E7D3F82D
:101CA0003C354010B3E793F8201581B9B3F82415FB
:101CB000B3F826354FF6E75081420DD983420FD94C
:101CC000052A9AD01D480521FFF740F895E7B3F89B
:101CD0002215B3F82435EDE74FF6F430814203D9ED
:101CE0004FF6F4318B4288D8042A86D0DFF850B002
:101CF000DFF850C00BF22C5EBCE80F00AEE80F001E
:101D00009CE80300DAF830354FF0040C00228EE82E
:101D10000300D9078AF821C58AF8982508D4DBF88A
:101D20002C255810384490470448FFF73FFA64E7E1
:101D30005810DBF82C153A585258F3E78809002060
:101D4000680400202C840008F0B590F86051046904
:101D500083B000F11401012D0EC9ADF80040ADF8BB
:101D60000210ADF80420ADF8063000F09982002D85
:101D700037D0A14C0025637825701A1FD2B2012AF2
:101D800040F2A9802A46206A9B4BC50740F19F80FC
:101D90004010C558D96918446B589849984794F829
:101DA000213500251A1FD2B2012A84F82055924EFF
:101DB00040F22C812A4606F5A465D4F840058E4BE6
:101DC000C10709D540102958D3F83C352844CB58D1
:101DD0008B49984703B0F0BDD3F83C3505EB600064
:101DE000F6E7864E6A46B41E67786B46A7F1040E86
:101DF0005FFA8EFEBEF1010F03CA06F8025C306086
:101E0000716003CBC6F82005C6F8241540F2D981CD
:101E10002A46206A784BC60740F1CF814010C5584A
:101E2000D96918446B587549984794F821350025AD
:101E30001A1FD2B2012A84F820556F4EBAD8B6F8CC
:101E400024254FF6E7518A42B6F8260500F29C8217
:101E50004FF6F4318A4200F29A82042B00F0AA81F4
:101E6000654F684E07F22C550FCE0FC596E803005C
:101E7000D4F830350426002285E80300DD0784F815
:101E8000216584F8982500F13E8307F5A465D7F80D
:101E90002C2505EB6300904794F82115564B0A1F3B
:101EA000D2B2012A93F8202540F2B283D4F840350B
:101EB0005149D80740F17A825B10D1F83C15EE58B1
:101EC000E81876584E49B04794F8202575E703EB9B
:101ED0006000DB6961E7A1884FF6E7529142E08834
:101EE0004FD9904251D9052B3FF44CAF464F04F1E6
:101EF0000C060FCF0FC697E803002369052284F86C
:101F00007850DD0786E80300627000F17483E268B0
:101F100004EB630090476178374B0A1FD2B2012A65
:101F20001A7857D8002A40F080849888DB884FF6CA
:101F3000E755A84240F27D84AB4200F253834FF64E
:101F4000F430834246D8042944D02B4F2D4E07F15C
:101F50000C050FCE0FC596E8030023690426002266
:101F600085E80300D807667084F8782000F12E8594
:101F7000FA685810204490471F48FFF717F9227855
:101F800028E04FF6F432914203D94FF6F4329042F2
:101F900030D8042B2ED0184F1A4E07F10C050FCE57
:101FA0000FC596E8030023690426002285E8030094
:101FB000D907667084F8782000F18982FA6807EB07
:101FC0006300904761780C4B0A1FD2B2012A1A783D
:101FD00040F2FC82216A084BCE0740F1748249101E
:101FE000CE58DD69C8187359044E3146984716F823
:101FF000022CC8E60022C6E6680400206A0400201D
:102000008A0900202C84000844840008B6F82415AE
:102010004FF6E7529142B6F8260562D9904264D94C
:10202000052B3FF4C7AEDFF854E306F22C57BEE8A9
:102030000F000FC79EE80300D6F83035052287E869
:102040000300D80786F8985586F8212500F15282BA
:1020500006F5A465D6F82C2505EB6300904794F8A7
:102060002115C34B0A1FD2B2012A93F820253FF64F
:102070001DAF002A40F06C83B3F82405B3F8263571
:102080004FF6E756B04240F26883B34200F226832F
:102090004FF6F43083423FF609AF04293FF406AF10
:1020A000DFF8CCE2B34F0EF22C560FCF0FC697E8F5
:1020B0000300D4F830350427002286E80300D9074E
:1020C00084F8217584F8982500F17084DEF82C25B9
:1020D000581028449047A848FFF768F894F820253E
:1020E000E4E64FF6F432914204D94FF6F4329042CE
:1020F00000F25281042B5DD09D4F9E4E07F22C556D
:102100000FCE0FC596E80300D4F830350022042620
:1021100084F89825DA0785E8030084F8216500F142
:10212000DC8107F5A465D7F82C2505EB6300904703
:1021300094F821158E4B0A1FD2B2012A93F820255C
:102140003FF6B4AE002A40F0C482B3F82405B3F8D9
:1021500026654FF6E753984240F2CB829E4200F24A
:10216000BD824FF6F4339E423FF6A0AE04293FF401
:102170009DAEDFF8FCE17F4F0EF22C560FCF0FC65D
:1021800097E80300D4F830350427002286E80300DE
:10219000DE0784F8217584F8982500F15183DEF874
:1021A0002C2505EB630090477348FEF7FFFF94F87A
:1021B00020257BE6704D0022FFE503EB6000DB6924
:1021C00031E6A3884FF6E7529342E18800F29D8002
:1021D0004FF6F432934200F2E280042F00F0E480E4
:1021E000DFF88CE1634F0EF10C050FCF0FC597E8B8
:1021F000030023690427002285E80300D8076770DD
:1022000084F8782000F18881DEF80C200EEB630062
:1022100090476178564B0A1FD2B2012A1A7800F211
:102220009880002A40F0F8829888DB884FF6E755BE
:10223000A84240F2CC82AB4240F2F182052900F084
:102240008880DFF82CE14D4F0EF10C050FCF0FC544
:1022500097E8030023690527002285E80300D907D2
:10226000677084F8782000F1B783DEF80C205810EE
:102270002044904762783E4B111FC9B2012940F2B9
:10228000BB83206A3A4BC10740F1AD8340101A5816
:10229000DB69D3582278204439499847227858E09E
:1022A000374E0098B41E637830601A1F0198D2B27E
:1022B000012A06F8025CC6F8200540F2C9802A46C9
:1022C000216A2B4BC80776D54910CE58DD69C8184E
:1022D00073592B49984794F821350122191FC9B227
:1022E000914284F82025224E6ED906F5A465D4F8D3
:1022F00040351F49D80762D55B10D1F83C15EC5822
:10230000E81864581F49A04764E5914247D9052F52
:102310003FF47EADDFF864E006F10A07BEE80F0087
:102320000FC79EE803002369052287E80300DF0743
:1023300084F87850627000F1C381E26804EB6300B6
:10234000904761780A4B0A1FD2B2012A1A7840F2EC
:102350000A82216A064BCF0740F1C8804910CF5846
:10236000DD69C8187B590649984716F8022C50E5D4
:10237000680400202C840008880900204484000898
:102380006A0400208A09002088423FF649AE4FF6D1
:10239000F43290427FF661AD0022C34D0DE54FF659
:1023A000F43399427FF619AF002232E5D1F83C654B
:1023B00005EB630086E503EB6100DB6989E7D1F893
:1023C0003C4505EB63009DE7B6F822154FF6E75054
:1023D0008142B6F8245540F2A880854240F211812E
:1023E000052B82D0B14F06F22C550FCF0FC597E8C1
:1023F0000300D6F830350022052786F89825DA073D
:1024000085E8030086F8217500F1278206F5A465AA
:10241000D6F82C2505EB6300904794F82125A44BB2
:10242000111FC9B2012940F28582D4F84035A04A73
:10243000DE0740F1B2825B10D2F83C25E958E8187B
:102440008E5894F820259B49B04794F820254EE7F4
:1024500062884FF6E7518A42A08840F28F80884216
:1024600040F2AE80052B3FF42AAF904F06F10A05EB
:102470000FCF0FC597E8030023690527002285E8E1
:102480000300D907677084F8782000F11782E268AA
:1024900004EB630090476278854B111FC9B2012994
:1024A00040F21282226A824BD70740F17B8252109F
:1024B000D558D969D0186B5816F8022C7E49984720
:1024C00016F8022CFCE603EB6100DB698CE55B107F
:1024D000D959FA68D8198A5873E55B1007F5A465CD
:1024E000D7F82C25E958E8188A5820E603EB610054
:1024F000DB6938E75B1006F5A465D6F82C25E958AA
:10250000E8188A58AAE55B1007F5A465D7F82C25CA
:10251000E958E8188A58BEE45B1053F80E10DEF84C
:102520000C2003EB0E008A5872E64FF6F43291420B
:1025300067D8042B00F0B4805D4F604E07F22C5535
:102540000FCE0FC596E80300D4F8303504260022DC
:1025500085E80300DD0784F8216584F8982500F1FB
:102560002D8107F5A465D7F82C2505EB630090476E
:102570004D48FEF71BFE94F82025B8E64FF6F431DF
:102580008A421DD8042B1FD0494F4C4E07F10C0531
:102590000FCE0FC596E8030023690426002285E8C4
:1025A0000300DD07667084F8782000F10181FA6885
:1025B00007EB630090473E48FEF7F8FD22787FE680
:1025C0004FF6F4329042DDD9012279E6002A7DD11E
:1025D0009888DD884FF6E753984240F290809D42FC
:1025E00040F2B08005293FF4F5AC31480521FEF7F3
:1025F000ADFB2278EEE45B101959E26818198A588D
:1026000088E44FF6F432954293D90122264D6EE6C6
:10261000002A40F0C880B3F82405B3F826354FF6F9
:10262000E756B04240F2B480B34240F2B68005298A
:102630003FF43CACDFF878E01C4F0EF22C560FCF85
:102640000FC697E80300D4F830350527002286E846
:102650000300D80784F8217584F8982500F1F581E6
:10266000DEF82C2558102844904794F82125104B6B
:10267000111FC9B2012940F2F981D4F840050C4B71
:10268000C60740F1EF814010D3F83C252B589B58EA
:1026900094F8202528440749984794F8202505E414
:1026A000014D012223E600BF880900204484000870
:1026B000680400208A0900206A0400202C84000895
:1026C0005B101959E26818198A5839E658889D88AC
:1026D00080E7B3F82205B3F824653AE505293FF40D
:1026E000E5ABC2480521FEF731FB94F82025FFF742
:1026F000DDBB4FF6F43398427FF638AD31E54FF647
:10270000F43398421ED804293FF464ACB84FB94E54
:1027100007F10C050FCE0FC596E8030023690022D0
:10272000042684F87820DA0785E80300667000F153
:102730008E80FA6807EB63009047AD48FEF736FDE0
:10274000227847E44FF6F4339D423FF643ACDAE794
:10275000B3F82205B3F8243592E44FF6F436B042CC
:102760007FF69BAC94E4002A40F0A5809888DB8833
:102770004FF6E755A84279D9AB4240F2D5800529FA
:102780003FF4E7AD9A480521FEF7E0FA2278E0E54C
:102790004FF6F436B0427FF6E9AC4FF6F4308342A0
:1027A0003FF684ABE2E4B3F82205B3F8243536E70C
:1027B0005B10D959FA68D8198A58FBE65B1007F5FF
:1027C000A465D7F82C25E958E8188A58CFE64FF6C3
:1027D000F435A84223D804293FF4BBADDFF810E25A
:1027E000844F0EF10C050FCF0FC597E80300236946
:1027F0000022042784F87820DA0785E80300677050
:1028000000F1DB80DEF80C200EEB63009047784887
:10281000FEF7CCFC22789CE558889B8806E54FF6AD
:10282000F43083423FF695ADD5E758889B88FFF793
:102830007EBB4FF6F435A8427FF685ABFFF77FBB32
:102840005B10DEF82C25E958E8188A58ABE45B10D9
:10285000D959FA68D8198A586EE75B1006F5A4654D
:10286000D6F82C25E958E8188A58D5E54FF6F435FE
:10287000A84259D804293FF46CADDFF874E15D4FEC
:102880000EF10C050FCF0FC597E80300236904274D
:10289000002285E80300DD07677084F8782000F1E6
:1028A000DA80DEF80C205810204490475048FEF79C
:1028B0007DFC22784DE558889B8859E75B101959B3
:1028C000E26818198A58E5E51978002940F0F78080
:1028D0009988DB884FF6E750814200F2E6804FF698
:1028E000F430814200F2DB80042A3FF4DBADDFF8F4
:1028F00000E1404F0EF10C050FCF0FC597E8030024
:1029000023690022042784F87820DA0785E8030089
:10291000677000F16481DEF80C2058102044904765
:102920003348FEF743FCBDE54FF6F43083423FF6F3
:1029300010AD9FE793F82015002940F08180B3F88F
:102940002415B3F826354FF6E75081426ED84FF67E
:10295000F430814264D8042A3FF467ADDFF890E098
:10296000244F0EF22C560FCF0FC697E80300D4F871
:1029700030350427002284F82175DF0786E803003C
:1029800084F8982500F19E80DEF82C255810284404
:1029900090471648FEF70AFC47E5D2F83C6505EB80
:1029A00063004EE503EB6200DB6985E55810DEF855
:1029B0002C152A585258FFF78CBB5B1053F80E1099
:1029C000DEF80C2003EB0E008A581FE75810395828
:1029D000FA688A58FFF7CEBA58105EF80010DEF891
:1029E0000C208A5844E4DB69401053E48809002035
:1029F000680400202C8400081978002940F0A08089
:102A00009988DB884FF6E750814261D9834263D9C8
:102A1000052A3FF436ACBC480521FEF797F930E4AF
:102A20004FF6F4318B423FF600AD94E78342F7D97D
:102A3000052A3FF4FAACB5480521FEF787F9F4E41E
:102A4000B3F82215B3F824357DE75810DEF82C15BD
:102A50002A58525807E658105EF80010DEF80C208D
:102A60008A5821E7D3F83C35401011E693F8201539
:102A7000002940F0F880B3F82415B3F826354FF656
:102A8000E750814240F2B280834240F2B380052A8F
:102A90003FF4F3AD9D480521FEF758F9EDE54FF6FB
:102AA000F4318B423FF6FEAC1EE78342F7D9052A8C
:102AB0003FF4F8AC94480521FEF748F9F2E4598850
:102AC0009B8807E75810DEF82C152A5852585EE705
:102AD0004FF6F430814204D94FF6F4318B423FF681
:102AE000D0AB042A3FF4CDABDFF81CE2884F0EF1E7
:102AF0000C050FCF0FC597E80300236900220427B8
:102B000084F87820DA0785E80300677030D4DEF8AF
:102B10000C2058102044904762787B4B111FC9B29B
:102B2000012913D9206A784BC5070CD540101A58D3
:102B3000DB69D3582044774922789847FFF7A1BB37
:102B400059889B885EE7DB694010F3E71978002914
:102B50003BD19988DB884FF6E75081420FD98342F9
:102B600011D9052ADED068480521FEF7EFF8D9E72C
:102B700058105EF80010DEF80C208A58CAE74FF6AD
:102B8000F430814203D94FF6F4318B42CAD8042A7B
:102B9000C8D0DFF874E15E4F0EF10C050FCF0FC502
:102BA00097E803002369042700226770DF0785E8A0
:102BB000030084F878200BD4DEF80C205810204451
:102BC00090475148FEF7F2FAACE759889B88C2E774
:102BD00058105EF80010DEF80C208A58EFE7581005
:102BE0005EF80010DEF80C208A5897E64FF6F430B5
:102BF000814204D94FF6F4318B423FF63EAD042AB0
:102C00003FF43BADDFF800E1414F0EF22C560FCF01
:102C10000FC697E80300D4F830350427002286E871
:102C20000300D90784F8217584F8982539D4DEF893
:102C30002C2558102844904794F82125324B111F19
:102C4000C9B2012918D9D4F840052F4BC7070FD5B1
:102C50004010D3F83C252B589B5828442E4994F813
:102C60002025984709E5B3F82215B3F8243506E77F
:102C7000D3F83C354010F0E793F8201500293ED1F9
:102C8000B3F82415B3F826354FF6E75081420ED934
:102C9000834210D9052AD6D01C480521FEF756F8E4
:102CA000D1E75810DEF82C152A585258C2E74FF6D3
:102CB000F430814203D94FF6F4318B42C3D8042A51
:102CC000C1D0DFF844E0124F0EF22C560FCF0FC6E2
:102CD00097E80300D4F830350022042784F89825BB
:102CE000DA0786E8030084F8217517D4DEF82C256E
:102CF0005810284490470548FEF758FAA3E7B3F860
:102D00002215B3F82435BFE76804002088090020A5
:102D10002C8400086A0400208A0900205810DEF87C
:102D20002C152A585258E4E790F860312DE9F04705
:102D3000012B154640F200814FF4A46808FB01F80E
:102D4000784A01EB4503784F12F803E0014408EBA1
:102D5000070494F8782081F86151BEF102014842DD
:102D6000484184F801E0CAB9C0B104F18003C4F855
:102D7000482103F18002002143F8041B9A42FAD152
:102D800004F59273002142F8041B9342FAD104F532
:102D9000A471002243F8042B9942FAD1634B0EEB45
:102DA0004E0604F10C0903EBC6064D4684F8780084
:102DB0000FCE0FC596E80300BEF1020F85E80300B1
:102DC00052D02069C3075ED540102258E3682044E2
:102DD000D358984763781A1FD2B2012A44D818F8FA
:102DE0000720002A5AD060884FF6E7518842A5880C
:102DF0005AD98D4240F28F80052B00F090804C4EC6
:102E00004FF0050C4FF0000E4D460FCE84F801C078
:102E100084F878E00FC596E8030085E8030023698D
:102E2000DE0700F19A82E26804EB63009047637862
:102E30001A1FD2B2012A18F807205DD8002A40F0E4
:102E4000AF82A188E5884FF6E750814240F2A38225
:102E5000854240F25E82052B4ED020460521FDF7CB
:102E600075FF18F8072047E018F80720A51C206A0E
:102E7000C3070CD540102158E3692044CB5829469C
:102E80009847BDE8F08704EB6000E368A1E704EB36
:102E90006000E36929469847BDE8F087A0884FF6AF
:102EA000E7518842E588A4D84FF6F431884232D8F9
:102EB000042B34D01F4E4FF0040C4FF0000E4D4643
:102EC0000FCE84F801C084F878E00FC596E80300BF
:102ED00085E803002369DD0740F199815B10E15823
:102EE000E268E0188A58904763781A1FD2B2012A24
:102EF00018F8072040F20282236AD90740F1968130
:102F00005B10E558E169E0186E58A51C2946B047EA
:102F100018F80720ABE74FF6F4318D42C8D9A51C4D
:102F2000A5E700BF8450010868040020CC83000896
:102F3000448400082C840008BE4EBF4C16F812E0F2
:102F400094F87830BEF10208D8F1000C80F86221C4
:102F500080F8612184F801E05CEB080CDBB9BCF17E
:102F6000000F18D0C4F8483104F5807104F18003D3
:102F7000002243F8042B8B42FAD103F124010022F2
:102F800043F8042B8B42FAD103F12401002243F8C9
:102F9000042B8B42FAD1DFF8B082DFF89CA20EEB53
:102FA0004E0908EBC9090AF10C07B9E80F000FC771
:102FB00099E80300BEF1020F84F878C087E80300A7
:102FC0000FD0DAF81000C70778D4DAF80C300AEB23
:102FD00060009847637898491A1FD2B2012A40F2DC
:102FE00087802278206A944BC10778D54010C75853
:102FF000D96918447B58914906EB450598476F7885
:1030000094F89835B7F1020CDCF1000E84F82175C4
:103010005EEB0C0E8849DBB9BEF1000F18D0C1F889
:10302000683601F5B46301F5C461002243F8042B4E
:103030008B42FAD103F12401002243F8042B8B4286
:10304000FAD103F12401002243F8042B8B42FAD178
:10305000DFF8E4C107EB470608EBC6060CF22C5577
:103060000FCE0FC596E80300022F84F898E585E897
:10307000030000F0D880DCF83005C70726D40CF533
:10308000A465DCF82C3505EB6000984794F82135F1
:1030900069491A1FD2B2012A71D994F82025D4F8AF
:1030A0004005654BC4071ED540102958D3F83C3560
:1030B0002844CB5862499847BDE8F087401050F843
:1030C0000A20DAF80C305044D35882E740100CF54F
:1030D000A4652A58DCF82C352844D358D5E703EBEF
:1030E0006000DB6987E7D3F83C3505EB6000E1E77A
:1030F0000A78002A00F0948048888F884FF6E751BC
:10310000884240F2C8808F4240F2F280052B3FF4A3
:1031100069AFDFF824C1DFF82CE10CF10C07BEE841
:103120000F000FC79EE8030023694FF0050E002231
:1031300087E80300D90784F801E084F8782000F1DB
:103140003F81DCF80C200CEB6300904762783A4B2F
:10315000111FC9B2012940F28B81226A364BD70771
:1031600040F137815210D758D969D0187B58334F66
:1031700017F8022C3946984717F8022C32E791F8D5
:103180002025002A47D0B1F82205B1F824654FF672
:10319000E75188425AD98E4240F2A480052B3FF471
:1031A0007EAFDFF894E0274F0EF22C560FCF0FC6FC
:1031B00097E80300D4F830350527002286E803009D
:1031C000DE0784F8217584F8982500F1F280DEF896
:1031D0002C2505EB6300904794F82125164B111F11
:1031E000C9B2012940F2FE80D4F84035124ADF0707
:1031F00040F1F3805B10D2F83C25E958E8188E586E
:1032000094F820250E49B04794F8202547E704EBB1
:103210006300E26867E6B1F82405B1F82665B6E711
:103220008888CF886AE70CF5A46536E704EB63006D
:10323000E6696AE684500108680400206A040020F8
:103240008A09002044840008CC8300084FF6F4313A
:10325000884247D8042B3FF422AFDFF8F0E2B94FA1
:103260000EF22C560FCF0FC697E80300D4F8303576
:103270000427002286E80300DE0784F8217584F81D
:10328000982578D4DEF82C2505EB63009047AE48EE
:10329000FDF78CFF01E74FF6F431884228D8042B64
:1032A0003FF4A0AEDFF8A4C2DFF898E20CF10C07FF
:1032B000BEE80F000FC79EE8030023694FF0040E1D
:1032C000002287E80300D80784F801E084F878201A
:1032D00058D4DCF80C200CEB630090479B48FDF7BA
:1032E00065FF7EE64FF6F4318E423FF6D8AEB1E789
:1032F0004FF6F4318F423FF675AED0E7002A37D152
:10330000A088E5884FF6E75188422CD98D423FF6D8
:10331000A2AD4FF6F4318D423FF6EEAD042B3FF4F3
:10332000EBAD884D4FF0040E00260FCD84F801E080
:1033300084F87860A9E80F0095E8030089E80300A5
:103340002369D8072FD4E26804EB63009047204636
:10335000FDF72CFF18F80720CEE55B10E158E26876
:10336000E0188A5862E54FF6F4318842D6D9D0E7A2
:103370006088A588C6E75B10DEF82C25E958E818B8
:103380008A5883E75B1053F80C10DCF80C2003EB31
:103390000C008A58A1E74FF6F4308142BED9B8E755
:1033A0006188A5884FE55B10E158E268E0188A580B
:1033B000CCE75B10DEF82C25E958E8188A580AE7B4
:1033C0005B1053F80C10DCF80C2003EB0C008A584F
:1033D000BBE603EB6200DB69C9E6D2F83C6505EBAE
:1033E00063000DE793F8201500297BD1B3F824156D
:1033F000B3F826354FF6E750814269D84FF6F430DE
:10340000814200F28780042A3FF4EEAEDFF83CE10F
:103410004C4F0EF22C560FCF0FC697E80300D4F88E
:1034200030350427002286E80300D80784F8217588
:1034300084F898257BD4DEF82C2558102844904732
:1034400094F82125414B111FC9B2012940F2828015
:10345000D4F840053D4BC2076FD54010D3F83C254A
:103460002B589B5828443A4994F820259847BBE6A6
:103470001978002945D19988DB884FF6E7508142B9
:1034800035D84FF6F43081423ED8042A3FF465AE79
:10349000DFF8B8C0DFF8ACE00CF10C07BEE80F00B5
:1034A0000FC79EE80300236900224FF0040E84F842
:1034B0007820DA0787E8030084F801E030D4DCF8EC
:1034C0000C205810204490472048FDF76FFE44E63A
:1034D00083421FD9052A3FF487AE1B480521FDF71B
:1034E00035FC81E6B3F82215B3F8243582E7834230
:1034F0000AD9052A3FF431AE14480521FDF726FC10
:103500002BE659889B88B8E74FF6F4318B423FF69B
:1035100024AEBAE74FF6F4318B423FF665AE72E760
:1035200058105CF80010DCF80C208A58CAE75810D4
:10353000DEF82C152A58525880E7D3F83C35401055
:1035400090E700BF2C840008880900206804002050
:103550008A09002093F8201589B9B3F82415B3F827
:1035600026354FF6E75081420ED9834210D9052AFD
:103570003FF46EAF1C480521FDF7E8FB68E7B3F8A0
:103580002215B3F82435ECE74FF6F430814204D924
:103590004FF6F4318B423FF65BAF042A3FF458AF4D
:1035A000DFF84CE0114F0EF22C560FCF0FC697E804
:1035B0000300D4F830350427002286E80300D90739
:1035C00084F8217584F8982508D4DEF82C25581045
:1035D000284490470448FDF7E9FD39E75810DEF824
:1035E0002C152A585258F3E7880900202C8400082B
:1035F000680400202DE9F84FC0F88811074600F54F
:10360000A87001F035FD07F5AA7001F0CDFD07F5B2
:10361000AC7001F081FCB5493A46086807F1100327
:1036200001300860002142F8041B9342FAD107F1EF
:103630002008002243F8042B9845FAD107F13009FD
:103640004346002243F8042B9945FAD107F2811B27
:103650005B4607F2851A002203F8012B5345FAD185
:1036600087F87621A2484FF4804104F0EDFBD0F1B9
:10367000010038BF00209F4D87F88C0107F26316C8
:1036800040F2FF3E07F26F142B4607CB3346B26081
:1036900030607160002213F8011B0A44A34292B209
:1036A000F9D1AB89E989934233D0934B103D9D42C8
:1036B0000EF1FF3EE8D10023A7F8703187F86031A2
:1036C00087F8613187F8623187F86E3188484FF4A6
:1036D000005104F0B9FB40B997F86E31384683F0D9
:1036E000010387F86E31FDF78FFE3846FEF72CFB9D
:1036F0003846002197F86121FFF716FB3846012173
:1037000097F86221FFF710FB002387F87731BDE8B7
:10371000F88F7145C9D197F8651197F8633197F81B
:1037200064010EF1010E082287F86211A7F870E11A
:1037300087F8603187F8610107F5B371002A54D129
:10374000023BDBB2012BC1D84FF4807348F8043B35
:10375000C145F9D100230BF8013BD345FAD1674CA1
:10376000984604F5A4653E4696F8783104EB0809BE
:103770001B02A9F802306178604B0A1FD2B2012AFD
:103780001A7868D9216A5D4BC8073FD5491051F8AE
:1037900003C0D3F81CE0C8185CF80E3058499847AD
:1037A00096F87C21554B1202A9F8222594F8211590
:1037B0000A1FD2B2012A93F820252BD9D4F840351C
:1037C0004E49D8071DD55B10D1F83C1555F803E0DC
:1037D000E8185EF801C008F102084A49E047B8F16C
:1037E000080F06F10106BFD170E707F5BC7004F0C1
:1037F0003DFD97F86031023BDBB2012B3FF666AF2F
:10380000A2E7D1F83CC505EB6300E4E703EB6100F8
:10381000DB69C3E7002A40F0BC80B3F82405B3F8A5
:1038200026354FF6E75E704570D9734540F2F88053
:103830000529C3D0DFF8C490DFF8CCC009F22C5EB4
:10384000BCE80F00AEE80F009CE80300D4F8303568
:103850004FF0050C72E0002A40F0DF809888DB888A
:103860004FF6E75E704540F29980734540F2DE8086
:10387000052987D0DFF884A0DFF88CC00AF10C0E90
:10388000BCE80F00AEE80F009CE8030023694FF08E
:10389000050C00228EE80300D80784F801C084F8E4
:1038A000782000F1D580DAF80C200AEB630090470D
:1038B0006178124B0A1FD2B2012A1A7800F29D8059
:1038C000002A40F095819888DB884FF6E75E7045C6
:1038D00040F21D81734540F21E81052900F08D8064
:1038E00006480521FDF732FA227886E0A80E00206E
:1038F00000100140F0FF0108F0BF0108680400203B
:103900006A0400208A090020448400084FF6F43E2F
:10391000704500F2858004293FF450AFDFF8209312
:10392000DFF82CC309F22C5EBCE80F00AEE80F00F4
:103930009CE80300D4F830354FF0040C00228EE8E8
:103940000300D90784F821C584F8982574D4D9F8E0
:103950002C2505EB6300904794F82115B84B0A1FFE
:10396000D2B2012A93F8202540F2BA80D4F840352B
:10397000B349D80740F1AF805B10D1F83C1555F83A
:1039800003E0E8185EF801C0AE49E04794F820254E
:1039900014E7B3F82205B3F8243542E74FF6F43EB6
:1039A000704543D804293FF4EDAEDFF894A2DFF868
:1039B000A0C20AF10C0EBCE80F00AEE80F009CE8B4
:1039C000030023694FF0040C00228EE80300D9079E
:1039D00084F801C084F8782035D55B1053F80A10BC
:1039E000DAF80C2003EB0A008A5890476178944B70
:1039F0000A1FD2B2012A1A7837D9216A904BC80718
:103A00002FD5491051F803C0D3F81CE0C8185CF852
:103A10000E308D4998472278B4E658889B881FE776
:103A20004FF6F43083423FF6C9AE74E74FF6F430F8
:103A300083423FF6A7AEB5E75B10D9F82C25E958CD
:103A4000E8188A5887E70AEB6300DAF80C20CCE71D
:103A50005B1053F80A10DAF80C2003EB0A008A58BE
:103A600025E703EB6100DB69D3E7002A40F03081F2
:103A70009888DB884FF6E75E704540F223817345F6
:103A80003FF62BAF4FF6F4308342B6D80429B4D0BA
:103A9000DFF8ACA1DFF8B8C10AF10C0EBCE80F00EA
:103AA000AEE80F009CE80300236900224FF0040CED
:103AB00084F87820DA078EE8030084F801C000F16A
:103AC0000A81DAF80C200AEB630090475C48FDF7A6
:103AD0006DFB227891E7D1F83CC505EB630053E715
:103AE000002A40F08880B3F82405B3F826354FF655
:103AF000E75E70454BD973454DD905293FF436AF84
:103B000052480521FDF722F994F820252EE74FF6BB
:103B1000F43E704504D94FF6F43083423FF66DAF62
:103B200004293FF46AAFDFF818A1DFF824C10AF1D5
:103B30000C0EBCE80F00AEE80F009CE80300236900
:103B40004FF0040C00228EE80300D90784F801C06E
:103B500084F878206AD4DAF80C200AEB63009047E6
:103B60006178374B0A1FD2B2012A1A784CD9216AE0
:103B7000334BC80744D5491051F803C0D3F81CE0B3
:103B8000C8185CF80E3030499847227835E74FF670
:103B9000F43E704504D94FF6F43083423FF6E6AE6A
:103BA00004293FF4E3AEDFF89890DFF8A4C009F2EF
:103BB0002C5EBCE80F00AEE80F009CE80300D4F8D0
:103BC000303500224FF0040C84F89825DA078EE88F
:103BD000030084F821C500F18780D9F82C2505EB76
:103BE000630090471948FDF7E1FA94F82025BDE6F7
:103BF00058889B8869E6B3F82205B3F8243576E740
:103C000003EB6100DB69BEE7002A4FD19888DB88AF
:103C10004FF6E75E70451DD973451FD90529A6D01B
:103C200007480521FDF792F82278A0E75B1053F8CA
:103C30000A10DAF80C2003EB0A008A588FE700BF5D
:103C4000680400208A0900206A04002088090020F6
:103C50002C8400084FF6F43E704503D94FF6F4303B
:103C6000834284D8042982D0DFF88CA0DFF88CC08E
:103C70000AF10C0EBCE80F00AEE80F009CE8030050
:103C8000236900224FF0040C84F87820DA078EE8CC
:103C9000030084F801C00CD4DAF80C200AEB6300AE
:103CA00090471548FDF782FA227860E758889B888C
:103CB000AEE75B1053F80A10DAF80C2003EB0A00A9
:103CC0008A58EDE74FF6F43E70457FF6DFAED9E651
:103CD00058889B88CEE65B1053F80A10DAF80C205F
:103CE00003EB0A008A58F0E65B10D9F82C25E95856
:103CF000E8188A5875E700BF680400202C84000883
:103D000090F88C312DE9F04704461BB14D8845B140
:103D1000BDE8F0874B88032BFAD8DFE803F0244E88
:103D2000676CD0F88801FCF70BFA204684F86051E4
:103D300084F8615184F8625184F86E51FDF764FB98
:103D40002046FEF701F82046294694F86121FEF747
:103D5000EBFF2046012194F86221FEF7E5FF84F88D
:103D60008C51BDE8F0874B68B3F5167F50DC90F8B6
:103D70006031012B40F22F8103F00103C3F10303F3
:103D800080F8603100F1300100F120034FF48072BF
:103D900043F8042B9942F9D104F2811304F28511FE
:103DA000002203F8012B8B42FAD12046FDF7CCFF0D
:103DB0002046BDE8F047FDF727BB90F86031496821
:103DC000032B0CBF90F8622190F86121B1F5167FAA
:103DD00016DD043202F00702991E2046C9B2FEF732
:103DE000A3FF2046BDE8F047FDF70EBB002380F897
:103DF0004030BDE8F087002380F84130BDE8F0870F
:103E0000032A02F1010202F0030288BF0432E3E751
:103E100090F8601190F86231DFF82483C44D18F8EF
:103E200013E0023101F0030180F8601180F8613184
:103E300095F87820BEF10200D0F1000C85F801E081
:103E40005CEB000CDAB9BCF1000F18D0C5F84821C2
:103E500005F1800305F58071002243F8042B8B42A5
:103E6000FAD103F12401002243F8042B8B42FAD14A
:103E700003F12401002243F8042B8B42FAD1AD4F09
:103E8000DFF8ACA20EEB4E0907EBC9090AF10C06EC
:103E9000B9E80F000FC699E80300BEF1020F85F8DC
:103EA00078C086E8030010D0DAF81030D90700F1A6
:103EB0009780DAF80C200AEB630090476B789C49F6
:103EC0001A1FD2B2012A40F2F2802A78296A984B4E
:103ED000CE0740F19780491051F803E0DE69C81819
:103EE0005EF806309449984794F8612195F8983522
:103EF00008EB420898F801E08D49BEF10200D0F1CC
:103F0000000C85F821E55CEB000CDBB9BCF1000F7F
:103F100018D0C1F8683601F5B46301F5C461002218
:103F200043F8042B8B42FAD103F12401002243F819
:103F3000042B8B42FAD103F12401002243F8042B15
:103F40008B42FAD1DFF8E8810EEB4E0307EBC30793
:103F500008F22C560FCF0FC697E80300BEF1020FF0
:103F600085F898C586E8030000F0B580D8F83035AC
:103F7000D9073ED408F5A466D8F82C2506EB6300D3
:103F8000904795F821356A491A1FD2B2012A42D9C1
:103F900095F82025D5F840356549D80736D55B100A
:103FA000D1F83C15F558F0186D586449A84704F14C
:103FB000200304F130014FF4807243F8042B99423E
:103FC000F9D104F2811304F28511002203F8012BC8
:103FD0008B42FAD1E9E6C3F1010380F86031E4E6EF
:103FE0005B1053F80A10DAF80C2003EB0A008A5829
:103FF00063E75B1008F5A466D8F82C25F158F01893
:104000008A58BDE703EB6100DB696BE7D1F83C55EB
:1040100006EB6300C9E791F82025002A40F0BE8036
:10402000B1F82405B1F826754FF6E751884240F201
:104030008D808F4240F2B780052BABD0DFF8F0C007
:10404000DFF800E10CF22C57BEE80F000FC79EE826
:104050000300D5F8303500224FF0050E85F898257D
:10406000DA0787E8030085F821E500F1B880DCF87D
:104070002C2558103044904795F821252C4B111FC2
:10408000C9B2012940F2B580D5F84005284BC207D6
:1040900040F1AB804010D3F83C2533589B5895F83D
:1040A000202530442549984795F8202572E70A785D
:1040B000002A3AD18888CE884FF6E75188420DD938
:1040C0008E4276D9052B3FF401AF19480521FCF744
:1040D0003DFE2A78FAE608F5A46659E74FF6F43172
:1040E000884266D8042B3FF4F1AEDFF844C0DFF815
:1040F00058E00CF10C06BEE80F000FC69EE8030066
:104100002B6900224FF0040E85F87820DA0786E844
:10411000030085F801E052D4DCF80C200CEB6300BE
:1041200090470348FDF742F8CFE648888E88C3E7FA
:1041300068040020CC8300086A0400208A0900205B
:1041400084500108448400082C8400084FF6F431A0
:10415000884228D8042B3FF41DAFDFF8F8C1DFF800
:10416000FCE10CF22C57BEE80F000FC79EE80300DD
:10417000D5F830354FF0040E002287E80300DF0742
:1041800085F821E585F8982522D4DCF82C2506EB66
:10419000630090476E48FDF709F8F9E6B1F822058B
:1041A000B1F8247540E74FF6F4318F423FF6F2AE96
:1041B000D0E74FF6F4318E423FF688AE92E75B10BF
:1041C00053F80C10DCF80C2003EB0C008A58A7E71E
:1041D0005B10DCF82C25F158F0188A58D9E75810F4
:1041E000DCF82C153258525844E7D3F83C354010CF
:1041F00055E793F8201589B9B3F82415B3F8263597
:104200004FF6E75081420ED9834210D9052A3FF478
:104210003BAF4F480521FCF799FD35E7B3F8221570
:10422000B3F82435ECE74FF6F430814204D94FF669
:10423000F4318B423FF628AF042A3FF425AFDFF874
:1042400014C1DFF818E10CF22C57BEE80F000FC7BD
:104250009EE80300D5F830354FF0040E002287E8C1
:104260000300DF0785F821E585F8982534D4DCF8CC
:104270002C2558103044904795F82125354B111FB7
:10428000C9B2012913D9D5F84005324BC1070AD567
:104290004010D3F83C2533589B5830442E4995F8AC
:1042A00020259847F0E6D3F83C354010F5E793F821
:1042B0002015002941D1B3F82415B3F826354FF65F
:1042C000E75081420ED9834210D9052ADBD020481D
:1042D0000521FCF73BFDD6E75810DCF82C153258C9
:1042E0005258C7E74FF6F430814203D94FF6F43104
:1042F0008B42C8D8042AC6D0DFF858C0DFF85CE08B
:104300000CF22C57BEE80F000FC79EE80300D5F84B
:1043100030354FF0040E002287E80300D80785F8F7
:1043200021E585F898250DD4DCF82C25581030446B
:1043300090470748FCF73AFFA5E7B3F82215B3F812
:104340002435BCE75810DCF82C1532585258EEE7EB
:1043500088090020680400208A0900202C840008B5
:104360002DE9F84F90F88C3104460D46FBB14B888F
:104370004A680344121283F8782190F8793190F852
:104380007821803B5B10803A03EBC202D0F8883181
:1043900052421A8090F87B1190F87A2180394910A6
:1043A000803A01EBC20252425A80BDE8F88F90F881
:1043B0006081B8F1030F4FD8DFE808F0508E020299
:1043C0004988A8F10208CAB202EB88095FFA89F9A4
:1043D000A14499F878C16B684FF4A460ACEB232C2E
:1043E0001FFA8CFC00FB08F81FFA8CF010F4004F49
:1043F00018BFCCF10000A34F94F86EC108EB07067C
:1044000018BF80B2BCF1000F06D0214491F8811191
:1044100011B900B202281FDC717806EB4202081FB6
:10442000C0B20128538018F8072040F2358106F108
:10443000020A306AC3076FD540103158F36930441F
:10444000CB58514698476B6801221B1289F8783186
:104450006B881C4484F88121BDE8F88F894E8878E8
:1044600073784A68191FC9B206EB400001294280DF
:10447000327855D9306A834BC70749D54010C758A1
:10448000D96918447B588049984796F82135A8780F
:10449000191F6A68C9B27B4F06EB40000129A0F8DA
:1044A000222597F8202540F2988007F5A467D6F8D2
:1044B0004005744BC10726D540103958D3F83C3518
:1044C0003844CB58714998476A886B6814441B126A
:1044D00084F87831BDE8F88F4B886A4E012B64D997
:1044E00096F82115981E0B1F6A68C0B2DBB206EB66
:1044F0004000012BA0F8222596F8202540F21481D7
:1045000006F5A467D3E7D3F83C3507EB6000D9E79D
:1045100003EB6000DB69B6E706EB6000F36990E748
:10452000002A40F0DD81B188F7884FF6E7508142DC
:1045300040F28081874240F21082052B9AD0DFF84A
:1045400044C1DFF850E10CF10C07BEE80F000FC7C3
:104550009EE8030033694FF0050E002287E8030050
:10456000DF0786F801E086F8782000F16F82DCF83A
:104570000C200CEB630090477278424B111FC9B2BC
:10458000012940F2B682326A3E4BD10740F17F8268
:104590005210D758D969D0187B583B4F17F8022CC6
:1045A0003946984717F8022C64E74A68717806EB99
:1045B0004303081FC0B201285A80327840F2E581D7
:1045C000316A304BC80740F1BF814910CF58DE69CE
:1045D000C818BB592C49984776E7002A40F08381D8
:1045E000B7F82415B7F826754FF6E750814240F228
:1045F0004B81874240F2AC81052B40D0DFF884C06C
:10460000DFF890E00CF22C57BEE80F000FC79EE8D1
:104610000300D6F830354FF0050E002287E803007E
:10462000D90786F821E586F8982500F118820CF55F
:10463000A467DCF82C2507EB6300904796F821254A
:10464000104B111FC9B2012940F23C82D6F8403507
:104650000C4AD90740F1F5815B10D2F83C25F95896
:10466000F81851F802C096F820250849E04796F856
:1046700020251CE74FF6F4339F4240F27981044F26
:1046800015E700BF680400206A0400208A090020A2
:104690008809002044840008002A40F02981B0885D
:1046A000B6F806E04FF6E753984240F225819E4562
:1046B00040F2668105293FF4BAAE4FF0050B06F1D2
:1046C0000C0ADFF8F8C386F801B0D6464FF0000BAD
:1046D000BCE80F0086F878B0AEE80F009CE8030055
:1046E0008EE803003369D80700F1C281F26806EB57
:1046F0006300904773781A1FD2B2012A18F8072076
:1047000040F20B8206F1020A336AD90740F1C381F5
:104710005B10F158D6F81CE0F01851F80E305146F5
:10472000984718F8072084E6002A40F02481B6F85C
:104730002435B6F826754FF6E750834240F21381D0
:10474000874297D905299AD0DFF864C3DFF86CE374
:104750000CF22C57BEE80F000FC79EE80300D6F8F6
:1047600030354FF0050E002287E80300DF0786F89A
:1047700021E586F8982500F181810CF5A467DCF825
:104780002C2507EB6300904796F82125C84B111F95
:10479000C9B201293FF65AAF93F82015002940F01D
:1047A0008A82B3F82415B3F826354FF6E7508142D4
:1047B00000F278824FF6F430814200F27682042AC9
:1047C0003FF444AFDFF8E882DFF8F4C208F22C5E71
:1047D000BCE80F00AEE80F009CE80300D6F83035C7
:1047E0004FF0040C00228EE80300D80786F821C59C
:1047F00086F8982500F16482D8F82C2558103844A2
:10480000904796F82125AA4B111FC9B2012940F201
:104810008282D6F84005A64BC20740F1788240104C
:10482000D3F83C253B589B583844A24996F820259C
:1048300098470BE74FF6F430814200F28E80042B4C
:104840003FF418AEDFF868C2DFF874E20CF10C0731
:10485000BEE80F000FC79EE80300336900224FF047
:10486000040E86F87820DA0787E8030086F801E06E
:1048700000F1A780DCF80C200CEB630090478C481B
:10488000FCF794FC3278F5E54FF6F43081425FD8BE
:10489000042B3FF4F4AEDFF818C2DFF824E20CF288
:1048A0002C57BEE80F000FC79EE80300D6F830353E
:1048B0004FF0040E002287E80300D80786F821E5B0
:1048C00086F8982574D40CF5A467DCF82C2507EB42
:1048D000630090477848FCF769FC96F82025E6E5E8
:1048E0007188B78821E6B7F82215B7F824757BE6FA
:1048F0007088B6F804E0D5E64FF6F43398423FD816
:1049000004293FF494ADDFF8B8C14FF0040B4FF029
:10491000000A06F10C0EBCE80F0086F801B086F81C
:1049200078A0AEE80F009CE803008EE8030033692E
:10493000DA077AD4F26806EB630090473046FCF75A
:1049400035FC18F8072072E503EB6100DB6941E6EE
:104950004FF6F4318F429BD991E64FF6F4318F42F6
:104960003FF688AD6BE74FF6F43083423FF682AEF8
:10497000042990D183E6B6F82235B6F82475DAE634
:104980004FF6F4339E45BBD951E5002A4AD1B3888E
:10499000F7884FF6E75083421CD987424BD9052947
:1049A0003FF40EAE42480521FCF7D0F9327807E615
:1049B0005B100CF5A467DCF82C25F958F8188A5818
:1049C00087E75B1053F80C10DCF80C2003EB0C00AD
:1049D0008A5853E74FF6F43083422CD804293FF429
:1049E000EFADDFF8CCC0DFF8D8E00CF10C07BEE883
:1049F0000F000FC79EE8030033694FF0040E00223A
:104A000087E80300DF0786F801E086F8782046D4BF
:104A1000DCF80C200CEB630090472548FCF7C6FB44
:104A20003278CDE57388B788B3E75B10F158F26848
:104A3000F0188A5881E74FF6F4339F423FF6C0AD35
:104A4000CCE7D2F83CC507EB63000CE65B1053F8EB
:104A50000C10DCF80C2003EB0C008A588BE55B1083
:104A60000CF5A467DCF82C25F958F8188A58E4E509
:104A70005B10F158F268F0188A583AE65B100CF5B2
:104A8000A467DCF82C25F958F8188A587BE603EB64
:104A90006200DB6981E506EB6300F3693FE65B10CA
:104AA00053F80C10DCF80C2003EB0C008A58B3E729
:104AB000680400208A090020880900204484000836
:104AC0002C84000893F82015002969D1B3F8241527
:104AD000B3F826354FF6E750814236D9834240F28B
:104AE000D580052A3FF4B2ADC5480521FCF72EF963
:104AF000ACE5197800297FD19988DB884FF6E7501B
:104B0000814252D9834240F2C780052A3FF43BAD2F
:104B1000BC480521FCF71AF935E5002A40F0AE80C3
:104B2000B088F1884FF6E75E704568D9714540F26C
:104B3000A880052B3FF4E6AD30460521FCF706F9C9
:104B400006F1020A18F80720DEE54FF6F43081423C
:104B500000F29C80042A3FF479ADDFF8A882DFF8E8
:104B6000A8C208F22C5EBCE80F00AEE80F009CE87B
:104B70000300D6F8303500224FF0040C86F8982553
:104B8000DA078EE8030086F821C500F19F80D8F887
:104B90002C255810384490479948FCF707FB55E5F9
:104BA000B3F82215B3F8243594E74FF6F430814278
:104BB00072D8042A3FF4E7ACDFF848C2DFF848E2D5
:104BC0000CF10C07BEE80F000FC79EE80300336925
:104BD0004FF0040E002287E80300D80786F801E0B2
:104BE00086F8782078D4DCF80C20581030449047B0
:104BF0008448FCF7DBFAC6E459889B887EE74FF6C9
:104C0000F43E70453DD8042B3FF47CAD4FF0040ECC
:104C1000DFF8F4C186F801E04FF0000BD646BCE89F
:104C20000F0086F878B0AEE80F009CE803008EE82D
:104C30000300306910F0010F4FEA60001BBF3258CB
:104C4000F368F368D3583044984773781A1FD2B288
:104C5000012A18F8072046D9306A06F1020A10F036
:104C6000010F4FEA60001BBF3158F369F369CB585D
:104C700030445146984718F8072045E57088B188B8
:104C800050E74FF6F4308142BDD93BE54FF6F431A1
:104C90008B423FF6DBAC5DE74FF6F4318B423FF6DB
:104CA00072AC86E783423FF61CAF4FF6F4318B427D
:104CB0003FF6CCAC83E5B3F82215B3F8243574E5A0
:104CC0005810D8F82C153A58525898E55810D8F87A
:104CD0002C153A5852585DE758105CF80010DCF873
:104CE0000C208A5882E7002A40F08780B088F1883B
:104CF0004FF6E75E704524D9714526D9052BABD018
:104D000030460521FCF722F818F80720A4E7D3F86D
:104D10003C35401088E593F82015002976D1B3F88A
:104D20002415B3F826354FF6E750814237D9834230
:104D300039D9052A3FF46DAD31480521FCF706F855
:104D400067E54FF6F43E704503D94FF6F4308142E3
:104D500082D8042B80D0DFF8B0E04FF0000C4FF089
:104D6000040BBEE80F0086F878C086F801B0AAE808
:104D70000F009EE803008AE80300306910F0010F7D
:104D80004FEA60001BBF3258F368F368D3583044D1
:104D900098473046FCF70AFA18F807205CE74FF608
:104DA000F430814204D94FF6F4318B423FF631ADF5
:104DB000042A3FF42EADDFF84C80DFF84CC008F237
:104DC0002C5EBCE80F00AEE80F009CE80300D6F8AC
:104DD00030354FF0040C00228EE80300D90786F826
:104DE00021C586F8982516D4D8F82C2558103844B3
:104DF00090470348FCF7DAF90BE57088B18877E74C
:104E000088090020680400202C840008B3F82215CB
:104E1000B3F8243587E75810D8F82C153A5852586B
:104E2000E5E700BF2DE9F041804682B000F5AB77A1
:104E300004460026236837F8021FC3EBC305226926
:104E4000236A0D44ED1099188D42C3EB02022560D0
:104E500002DA954200DD4BB940466946ADF8026082
:104E60000195FFF77DFA4023256123620136042E68
:104E700004F10404DED102B0BDE8F08130B5D0F811
:104E80004C21D0F8483183B0D31ADA06044618BF53
:104E90006D4608D12AE022B3D4F84C21D4F8483129
:104EA000D31ADB0622D0D4F8483104EBC3024832CF
:104EB00092E8030085E803009DF80020013303F029
:104EC0001F03042AC4F84831E5D1019BCBB9BDF8D2
:104ED0000230022B1AD0032BDED1012384F841309B
:104EE000DAE720466946FFF73BFAD5E7094B626CE3
:104EF00019688A1AB2F57A7F01D91B68636403B016
:104F000030BD20466946FEF7FBFEC5E7012384F865
:104F10004030C1E7A80E00202DE9F04393B00124F2
:104F200000250F2301A907463C48ADF804308DF851
:104F300006408DF80750DFF8F09002F02BFF38485C
:104F400002F0D0FD04264FF4807C4FF4806E2022C6
:104F50004FF40053324807A94FF08008CDF834C011
:104F6000CDF838E00F921093089709950B9511959D
:104F7000CDF81C900A96CDF8308002F033FE214621
:104F8000274802F04FFE274802F0D2FC4FF460227F
:104F90004FF40063234802A90492059302958DF80B
:104FA0000C408DF80D408DF8186002F0F7FC224699
:104FB0001C480321072302F047FD02210A46194835
:104FC000072302F041FD214616480322072302F081
:104FD0003BFD294632461348072302F035FD1148B0
:104FE000214602F0FFFC0F4802F010FD0D4802F0D0
:104FF00013FD0028FAD10B4802F012FD094802F017
:1050000015FD0028FAD10748012102F0F5FC0548FA
:10501000012102F00FFD13B0BDE8F083000801404C
:1050200008000240002401404C24014030B583B008
:1050300001A94FF48053022548240B48ADF80430F1
:105040008DF806508DF8074002F0A4FE4FF400637F
:1050500001A906488DF806508DF80740ADF80430D8
:1050600002F098FE03B030BD00080140000C014082
:10507000F0B52E4E89B002256946F02310272C4842
:105080002C4CADF800308DF802508DF8037002F012
:1050900081FE694630464FF480638DF802508DF8EA
:1050A0000370ADF8003002F075FE03226946304609
:1050B0001823ADF8002008268DF802508DF8033033
:1050C000002502F067FE3F232046ADF80830ADF81A
:1050D0000460ADF80A50ADF806508DF80C5003F09E
:1050E00069F8204601A902F025FF01276023204628
:1050F00004A9ADF81030ADF81650ADF81850ADF861
:10510000127002F0C1FF2046314603F06DF82046D0
:1051100004A903F001F82046314603F06DF820465B
:10512000394603F02FF809B0F0BD00BF000C014074
:10513000000801400004004038B5194DC17804460C
:105140008908284603F066F8A1782846890803F004
:1051500063F8627813484FF4806102F07BFE227896
:1051600005F58235284602F00102102102F072FE98
:105170002278284602F00202202102F06BFE2278FB
:10518000284602F00402402102F064FE22782846FC
:1051900002F008028021BDE8384002F05BBE00BF8B
:1051A00000040040000C014030B5042283B0FF2110
:1051B00003F0C2F80225482401A910231148ADF8D4
:1051C00004308DF806508DF8074002F0E3FD01A988
:1051D0004FF480730C48ADF804308DF806508DF80C
:1051E000074002F0D7FD4FF4C04301A907488DF8EE
:1051F00006508DF80740ADF8043002F0CBFD03B047
:1052000030BD00BF000C014000080140001001400B
:10521000F8B510210446C578134802F015FE6D005C
:10522000EDB22843E0704FF480711048A77802F087
:105230000BFE7F000E4DFFB23843A0704FF40051BB
:105240002846267802F000FE7600F6B263783043F6
:1052500020704FF4804128465D0002F0F5FDEDB26C
:1052600028436070F8BD00BF000C014000080140F9
:105270000010014030B5144685B00D4602F090FA9A
:105280002CB14FF000604FF4804102F047FB44F630
:105290001D20012102F02AFE44F20600012102F045
:1052A00031FE0120014602F015FE0121174802F0EF
:1052B000D7FD4FF4404002F003FE00241448ADF83F
:1052C0000850ADF80440ADF80A40ADF806408DF83E
:1052D0000C4002F06FFF01A90D4802F02BFE0121E6
:1052E0000B4802F04FFF4FF4A06002F0D5FA1922EC
:1052F000012368468DF801408DF802408DF80020AA
:105300008DF8033002F0D2FA05B030BD0001300054
:10531000002C014070B4084B084A0948F0265A6036
:10532000002580F82360072401219D600A461C6047
:10533000044870BC02F034BF10E000E03F190100E7
:1053400000ED00E0002C01402DE9F00F002340F6B5
:10535000FD7B4FF4845A4FF0010940F60C584FF48E
:105360004067C0264FF4786547F281744FF0300CE7
:105370004FF44851FF22C0F82CB0A0F83EA080F8AE
:105380003C90C0F8048087618662C565A0F8404003
:10539000C0F814C00166426403608360C360C361E7
:1053A000036203634363036543654366BDE8F00F2F
:1053B000704700BF2DE9F00F8CB002910492002BD2
:1053C00000F03C81076E466E0897476CB0F85C2091
:1053D0000396C66A0597029F07920A9642688669F5
:1053E0001F440992016D426DC568046A0B960697C9
:1053F000DEE0C669D0F80890D0F81080D0F824C05C
:10540000076B099BB9F1000F05FB03F54FEA153552
:10541000C56009DD09F1FF3383602BB988EAE873C1
:10542000A3EBE8731D44C5600B9BB8F1000F03FBB1
:1054300004F4B4BFC5F10008A846240B002E046292
:105440000BD008F5804808DD013EC6612EB98CEA14
:10545000EC76A6EBEC7634440462436B0A9EBCF116
:10546000000F03FB06F3B4BFC4F1000CA446C44410
:105470001E0B002FCDF804C0466340F3C480013FEB
:105480000763002F40F0C180876B002FB8BF7F42B9
:10549000374447634FF00009079F90F83C60B944D8
:1054A0001FFA89F9002E00F0A1800FFA89FCB0F9EB
:1054B0004080654F654E4FEA4848A0F83E904FEA5D
:1054C0004C4C4FEA186907F1020A3AF819A037F86C
:1054D000197006F1020B4FEA1C6936F819603BF8A7
:1054E00019904FEA18284FEA1C2CC7EB0A0AC6EBA2
:1054F00009091FFA88F81FFA8CFC0CFB09FC08FB51
:105500000AF806EB1C4607EB1847019BBFB2B6B280
:105510004FF0000BC764866480F83CB04FEA231C50
:10552000059B7BB1B1F5805F40F38380A1F50069F5
:105530004FEAE9094FEA2118059B4F4408FB03F89D
:1055400006EB682602FB06F802FB07F701EBE831E1
:10555000DFF8FC80019B4145A3EBE73762DAC0F836
:10556000508041467F1A07FB06F6394B02EBE632C4
:105570009A4250DA43651A46039E0CEB0203089FD9
:105580009B1B07FB03F306EBE33313F5004F436666
:105590003EDDB3F5004FA8BF47F6FF7652DB049F10
:1055A00027F8026B0497029E069FBE4246D00393E3
:1055B000029E16F8013B9B0702967FF51AAF07681B
:1055C000836A4669DFF88C80DFF88CC007F1010937
:1055D00001365F1C44F25063C0F80890C66107634F
:1055E000C0F81080C0F824C083630AE7B0F93E60B9
:1055F0000FFA89FC66457FF45AAF019EC76C4FEAEB
:10560000261C866C8CE73FF445AF4FF4086943E7EE
:1056100048F20106C3E7B2F5004FA8BF47F6FF7294
:105620004265A9E7B1F5004FA8BF47F6FF710165D4
:1056300098E74FF000094FF080087DE70CB0BDE817
:10564000F00F70479EB2AAE7CC1E01087C4C0108FF
:105650000180FFFF333304003DCAFFFF00224FF0FB
:10566000FF33426102828361C36170472DE9F00715
:105670008B1307783E4D3F4C1B01002F0CBF2F466C
:10568000274603F1100903F1080803F1180C8900FB
:10569000B944B844BC4483B01F4489B20023FE5AC5
:1056A00038F8035039F803403CF803A0A41BC5EBBD
:1056B0000A0A01FB04F401FB0AFA06EB244405EB99
:1056C0002A45A4B2ADB22D1B02FB05F504EB25441F
:1056D0002DF803400233082BE1D1BDF80030B3F5BB
:1056E000804F2CD84FF480624280BDF80420BDF872
:1056F000021003EBC3039D09541089109210BDF8EA
:10570000063002F5005201EB410105F54065C1F399
:105710008D0104F5804442811A048580C180048192
:1057200016D4C3F5FF437F3303FB03F30022C3F317
:105730008F338281C38103B0BDE8F0077047B3F5B2
:10574000004F9ABF1A11C2F5006200224280CCE7D6
:10575000A3F5004303FB03F3C3F34D4303EB8303C0
:1057600083810023C38103B0BDE8F007704700BF09
:10577000E45001089450010843F6FF739942A8BF12
:105780001946B1F5685310B44FF0000004D513F575
:10579000C06300F10100FAD41911094A4C1C52F8F7
:1057A000244052F8212003F00F03A11A03FB01F358
:1057B00002EB231222FA00F05DF8044B704700BFA1
:1057C000F44801082DE9F04FB0F808C047890446B5
:1057D0004FEA2C2689483D1205F1010906F101081E
:1057E00050F8255050F8266050F8288050F82900CD
:1057F000C8EB0608281A5FFA8CFCFFB20CFB08FC09
:1058000007FB00F787B00291616AA5EB1727A6EBAB
:105810001C2C05970392CDF804C06769D4F8188052
:10582000E669256A049103F1FF39002B00F0DB8063
:10583000DFF8E4A1BCE0E788DDF81480C7EB873728
:105840006F4D3F1400266F4B9D4298BF4FF0FF35C0
:1058500019F0030F36D16C4B4FEA186233F812007F
:105860003AF812102A0E33F812303AF81220401A81
:10587000C8F30F2E0EFB00F09B1AC5F30F2E0EFB84
:1058800003F301EB104102EB134289B2E08892B2BC
:10589000C1F57F41FF31C2F57F43B4F802C000FB80
:1058A00001F2FF33B4F910E00CFB03F3A08800EB26
:1058B000AE1000EB124202EBD33109B22046FFF7E3
:1058C0005BFF049004990F445049BB0D31F813203D
:1058D000023131F913B013B2C3EB0B0BC7F38F13C3
:1058E00003FB0BFBA38902EB2B4B1FFA8BFBB3B122
:1058F000DFF828C1464ADCF80000C3F57F4102FB0F
:1059000000F0444A0FFA8BFB0244101400FB03F32F
:10591000FF3101FB0B3BCCF800204FEA1B4B019AF7
:10592000B61857D2310E49008A1CC6F30F233AF835
:1059300001C03AF802000FFA8BFBCCEB000003FB2E
:1059400000F00CEB104082B2C2F57F42FF320BFB3D
:1059500002F2E389120C0BB312B2100400F1004002
:10596000DFF8BCB04FEA905C3BF81C100BF1020B67
:105970003BF91CC080090FFA81FB80B2CBEB0C0C09
:1059800000FB0CFC01EB2C4C0FFA8CFC0CFB03FC19
:10599000C3F57F43FF3303FB02C2120C039B09F1E3
:1059A000FF392282B9F1FF3F23F8022B03931AD06B
:1059B000029A12F8013B9B0702923FF53CAF059B10
:1059C00005F1441518EB030805F5884528BF4FF08D
:1059D000FF3838E74FF6FF734FF400724FF4FF7152
:1059E0004FF0FF36A3E704996761C4F81880E661B9
:1059F0002562616207B0BDE8F08F00BFD4220108C4
:105A00004444440043444400DE2E0108E4320108CB
:105A10000D6619005FF36E3CDC2E01087800002053
:105A2000F040010870B400234FF4525645F6C055BB
:105A30004FF45C54012240F6FD7146808580448419
:105A400041644361836183604363836383628384CE
:105A500003648364C364027080F8202070BC7047C4
:105A60002DE9F00F8EB00A910B92002B00F06A82A4
:105A7000826E0E49446D01FB0321856DC66D019454
:105A80000D91446C816802950396076ED0F864B05E
:105A9000856AC66C07910C940497416983690895DF
:105AA000446B0696CDF814B070E100BF9999990542
:105AB000056DD0F848B00995019E039D06F1387632
:105AC00006F5A33606F5D7760196049E05F10D7509
:105AD00006F14F7605F59F35049605F5BE750395DD
