:020000040800F2
:10000000040300200D8700088D0100087D01000811
:100010008101000885010008890100080000000036
:100020000000000000000000000000009101000836
:100030009501000800000000990100089D010008DA
:100040005587000855870008558700085587000820
:100050005587000855870008558700085587000810
:100060005587000855870008558700085587000800
:1000700055870008558700085587000855870008F0
:1000800055870008558700085587000855870008E0
:1000900055870008558700085587000855870008D0
:1000A00055870008A90100085587000855870008F2
:1000B00055870008558700085587000855870008B0
:1000C00055870008558700085587000855870008A0
:1000D0005587000855870008558700085587000890
:1000E0005587000855870008558700080000000064
:1000F0000000000000000000000000000000000000
:1001000000000000000000005FF808F130B40B4B65
:10011000054618682C4644F8040B988800222B46A4
:1001200013F8011B0A44A34292B2F9D1904202D0C3
:1001300000232B806B8030BC704700BF00BC0108DF
:1001400038B50546044607F0EDFF0A4808F02AF8DE
:1001500055F8041B074808F047F8002114F8013B44
:100160001944AC4289B2F9D10348BDE8384008F0DF
:100170006BB800BF00BC010804BC0108FEE700BF6B
:10018000FEE700BFFEE700BFFEE700BF704700BF0D
:10019000704700BF704700BF704700BF014801F0C3
:1001A000C3BC00BF100300202DE9F843544B1A8A4A
:1001B000D20701D4BDE8F883524C4FF6FE71227984
:1001C0001982002A46D161880123490A4E482371C9
:1001D00008F096FA61884C48C1F3860108F092FA5B
:1001E0002379002BE6D04949494B4A4A8E689968E1
:1001F00092F84100484B11F4805F0CBF02270027A2
:1002000092F8401000281A6B0CBF0025022586F4D6
:100210000066586B2943C6F3C026551C3E4300EBCD
:100220004000032D46EA010603EBC00005D95F6BD1
:10023000D51E013707F001075F631D63374BF707D2
:100240001D7805F0010513D4002D48D04FF0040CA3
:10025000E14611E021880023490A2B48237108F068
:100260004BFA21882848C1F3860108F047FAB7E71E
:100270008DBB4FF0030CE14600EB4207B7F8088056
:100280005D78B60783F80090A4F8008005F00105BA
:1002900028D46DB304252E464FF0400811F0010F0D
:1002A0000CBF4FF000094FF0080911F0020F48EAA7
:1002B0000C0C0CBF4FF000084FF008083F8A4CEAC6
:1002C000090C811848EA050500F802C05E700D713E
:1002D0006780BDE8F8834FF0010CE146CCE7AC46FF
:1002E000A946C9E73DB101252E464FF01008D5E7D4
:1002F000A8462E46D2E703252E464FF03008CDE71C
:10030000002C0140B004002000080040000C014017
:100310000008014010030020B8040020F804002069
:100320002DE9F04782462748894602F0E3FD264F33
:10033000DFF89080254D4FEA4906002498F8903167
:100340005BB3A919A94205D0204A002322F8023B39
:100350009142FAD12B8808EB0402A2F87631B9F168
:10036000000F13D01A4A0AEB840CA05E00221BB2C5
:10037000C3F5FF437F330CEB02010344023283F3E6
:100380001003B2420B8101D0AB5AF0E70234042CC7
:1003900007F69817D2D1BDE8F087BB690AEB440194
:1003A000DA0709D55B10FA58F8187B6952F803C0D0
:1003B000064A4B46E047CDE707EB6300D7F814C089
:1003C000F6E700BF10030020FC0400200403002017
:1003D0000C0300202DE9F041DFF8188188B040F2CD
:1003E000ED214046002202F0ADFF394B002539488F
:1003F000394C1D6002F082FE384B4FF4707E18229B
:100400000126694603273648ADF800E08DF8032041
:100410005D631D639E638DF8027007F031FF7F23DB
:100420002046ADF80830ADF80450ADF80A50ADF8EC
:1004300006508DF80C5008F033F9204601A907F05A
:10044000EFFF6023204604A9ADF81030ADF812602C
:10045000ADF81650ADF8185008F006F820460821FF
:1004600008F026F9204604A908F03CF820460821A7
:1004700008F026F9204604A908F07CF82046082157
:1004800008F028F9204604A908F0BCF82046082105
:1004900008F028F931462046124C08F0E9F8124FCE
:1004A000124B20461D71FFF731FE2946384601F0F8
:1004B000A7F907F69810314601F0A2F921460C4839
:1004C00002F0A6F8404602F08DFF08B0BDE8F081CA
:1004D0002C180020F404002000080040B80400207C
:1004E000000C01400C030020FC040020B00400209C
:1004F00010030020AC04002008B5FFF76BFF0D4C83
:100500000D4802F023FDA26B636B9A42F8D0A06BFA
:10051000042100EB400004EBC000FFF701FFA36BD8
:10052000013303F00103A363A26B636B9A42EED124
:10053000E6E700BFB804002010030020012A2DE9DF
:10054000F00131D0B1F80480B1F800C04F88CE88F6
:100550000023022101224FEA6808032447F6FF75B1
:10056000A0F82880A0F834C0C7860687A0F85C40B1
:10057000A0F85E1080F8441083844385A0F86230B0
:10058000A0F86030C58480F8452080F84620B0F996
:100590004C30A34205DD0023A0F84C304365A0F8A1
:1005A0005030BDE8F00170470E884D8800230224CA
:1005B00047F6FF718686C58680F84520A0F85C4026
:1005C00080F84440A0F85E3083840385A0F8623050
:1005D000A0F86030C184DAE7012A30B430D0CB888B
:1005E0004C88C3F57F43FF3303FB03F504FB04F49E
:1005F0008A882D0C098802FB02F203FB05F3240C08
:10060000A1F5004104FB04F409B2C1EBC101920C55
:100610009B0C091202EB4202240E0125C3F5FF4395
:1006200001F5786102F50072C0F8B44180F8AC5170
:10063000C0F8CC11A0F8B031C0F8D02130BC704760
:100640004B880988C3F57F43FF3303FB03F449104C
:1006500001F50051240C01FB01F103FB04F3890CAB
:1006600001EB41019B0C4FF47865232401F50071E7
:10067000C3F5FF43C0F8CC51C0F8B441C0F8D01165
:1006800080F8AC21A0F8B03130BC7047012A30B4FA
:100690000B8831D0C3F5FF437F339B1190F8942230
:1006A000C3F552539BB22ABBB0F896525D1B18BFDC
:1006B0000125A0F896320A8840F6FF74A0F8E822D7
:1006C000A0F8EA224B8880F89452A0F8EC32A0F807
:1006D000EE328A88DB12A0F8E022CA8803F6E173C2
:1006E000B3F5805F08BF2346C0F8B832A0F8E22215
:1006F00030BC70470125DCE7C3F5FF437F339B1116
:1007000090F89442C3F552539BB2D4B1A0F89632FC
:100710000B8840F6FF74A0F8E832A0F8EA324B8864
:1007200080F89422DA1202F6E172B2F5805F08BF17
:100730002246A0F8EC32A0F8EE32C0F8B82230BC65
:100740007047B0F896229A1A18BF0122DEE700BF60
:10075000012A0FD00B88A0F81C334B885B10A0F83F
:100760001E338B885B10A0F82033CB885B13A0F876
:10077000223370470023A0F81C330B885B10A0F8CD
:100780001E330B885B1003F50063A0F820334B8801
:100790005B13A0F822337047084B10B440F6FF718A
:1007A00028240022C0F87444C0F87C34C0F87814BF
:1007B000C0F880245DF8044B704700BF00C0FF3FC5
:1007C000F0B4002B40D0D0F874C4D0F880740B443F
:1007D00013E0B542C0F8885430DDD0F878542413C3
:1007E000644205FB04F4994247F6FF75C0F888643B
:1007F000C0F8844422F8025B26D011F8015BD0F8DF
:100800008464AD073C464EBFD0F87C543446D0F8E3
:100810008854CCEB040448BFC0F8885465190B4ECB
:10082000C0F88444D5D5D0F878542413644205FB2D
:1008300004F40025C0F88444C0F88854C5F3CF35CB
:10084000994222F8025BD8D1F0BC70470080FF3F8C
:10085000012A70B4264A0C884B8826D02512961C93
:10086000C3F57F4332F8152036F81550FF33AD1A23
:10087000E4B203FB03F304FB05F4CD881B0D898868
:10088000A5F5004502EB2422C3F57F632DB22D01AF
:1008900092B20F338903C0F88054C0F87424C0F8B2
:1008A0007834C0F87C1470BC70472112951CC3F5D5
:1008B0007F4332F8112035F81110FF33891A03FBFA
:1008C00003F3E4B204FB01F41B0D02EB2422094DF7
:1008D000C3F57F630F3392B20021C0F87C54C0F897
:1008E0007834C0F87424C0F8801470BC704700BF1E
:1008F0002441010800C0FF3F10B400F28E4200F214
:100900009644002322F8023B9442FAD1042280F854
:100910008D3480F8963480F88C245DF8044B704751
:1009200070B463B30B4411F8016B90F88D44B507B4
:100930000BD5013490F89654E4B280F88D4425B17B
:10094000002480F8964480F88D4490F88C54022D51
:1009500004D9B60644BF012680F89664A5429CBF20
:10096000002480F88D4400EB4404B4F98E4499428D
:1009700004EB840444F3CF0422F8024BD3D170BCBF
:10098000704700BF0B88012AA3F50043B0F88E24FE
:100990009BB225D0934218BFA0F88E344B88B0F894
:1009A0009024A3F500439BB2934218BFA0F8903463
:1009B0008B88B0F89224A3F500439BB2934218BFF2
:1009C000A0F89234CB88B0F89424A3F500439BB2EE
:1009D000934218BFA0F89434042380F88C347047F5
:1009E000934218BFA0F88E344B88B0F89024A3F53A
:1009F00000439BB2934218BFA0F89034022380F8C2
:100A00008C3470470B88012A4FEA930210B4A2F588
:100A1000C044A0F898441FD01C044ABF5A1002F5E5
:100A2000C04202F5804292B2A0F89A244B885DF849
:100A3000044BA0F89C34CB888A8803EB4301C3EBBA
:100A40004133D2101B0C02F5807203F50053C0F83D
:100A5000A424C0F8A03470471C044ABF5A1002F501
:100A6000C04202F5804292B2A0F89A2449884FF41D
:100A7000885244F6FF73A0F89C14C0F8A424C0F870
:100A8000A0345DF8044B70470B88012AA0F8143598
:100A90004B88A0F816351FBF8B88A0F81835CB8877
:100AA000A0F81A35704700BF012A2DE9F0013DD0AA
:100AB000B1F804800E88B1F802C0CF88002302226A
:100AC00047F6FF7401214FEA68080425A0F82C8539
:100AD000A0F83865A0F83AC5A0F83C65A0F83E75C6
:100AE000A0F86055A0F8622580F8482580F84A25CE
:100AF000A0F82835A0F83035A0F86635A0F86435A0
:100B0000A0F82A45A0F82E4580F8491580F84B1525
:100B1000B0F95035AB4206DD0023A0F85035C0F8DF
:100B20005835A0F85435BDE8F00170470C88498865
:100B30000023022547F6FF72A0F83845A0F83A15C1
:100B4000A0F86055A0F86235A0F82835A0F82C353B
:100B500080F8483580F84935A0F86635A0F8643546
:100B6000A0F82A25D4E700BF012AF0B434D0B1F8A8
:100B700004C00F884E88CD880023022203214FEA4B
:100B80006C0C47F6FF74A0F870C5A0F87C75A0F84F
:100B90007E65A0F88055A0F8A415A0F8AA15A0F8C5
:100BA000A635A0F86C35A0F87235A0F8A835A0F8E5
:100BB0006E4580F88C2580F88D2580F88E25B0F95B
:100BC00094358B4206DD0023A0F89435C0F89C359F
:100BD000A0F89835F0BC70470D884C88002302219E
:100BE00047F6FF72A0F87C55A0F87E45A0F8A41542
:100BF00080F88C1580F88D15A0F8AA15A0F8A635F8
:100C0000A0F86C35A0F87035A0F8A835A0F86E25CE
:100C1000D5E700BF012A2DE9F00137D0B1F80480F3
:100C2000B1F800C04F88CE88002302224FEA68083E
:100C3000032147F6FF750124A0F8B485A0F8C0C5CC
:100C4000A0F8C275A0F8C465A0F8E815A0F8EA35C8
:100C5000A0F8B035A0F8B635A0F8EC35A0F8B2553C
:100C600080F8D02580F8D125A0F8EE2580F8D2456F
:100C7000B0F9D8358B4206DD0023A0F8D835C0F88E
:100C8000E035A0F8DC35BDE8F00170470D884C88F0
:100C90000023022147F6FF72A0F8C055A0F8C24514
:100CA000A0F8E81580F8D01580F8D115A0F8EE1559
:100CB000A0F8EA35A0F8B035A0F8B435A0F8EC35C6
:100CC000A0F8B225D4E700BF012AF0B43AD00D88CD
:100CD0004C88B1F804C0CF880023022147F6FF7288
:100CE0000126A0F81456A0F856C6A0F85876A0F829
:100CF0001646A0F82456A0F82646A0F84C1680F810
:100D00003416A0F84E36A0F80436A0F80836A0F83D
:100D1000F435A0F8F835A0F85236A0F85036A0F80F
:100D20000626A0F8F62580F83566B0F93C36022B89
:100D300006DD0023A0F83C36C0F84436A0F8403663
:100D4000F0BC70470E884D880023022447F6FF71DF
:100D5000A0F81466A0F81656A0F82466A0F8265647
:100D600080F83526A0F84C4680F83446A0F84E3678
:100D7000A0F80436A0F80836A0F8F435A0F8F83545
:100D8000A0F85036A0F85236A0F80616A0F8F615CE
:100D9000CBE700BF0023A0F8C836A0F8CA36012A66
:100DA00030B44B882ED0C3F57F43FF3303FB03F4ED
:100DB000240C03FB04F30A889B0CC3F5FF43A0F843
:100DC0009C36531003F500534A8803FB03F3A0F845
:100DD000CC268A889B0CA0F8C426CD8803EB43035D
:100DE0004FF4786403F5007323210122A0F8C6565E
:100DF000C0F8B846C0F8BC36C0F8A01680F89826EF
:100E000030BC7047C3F57F43FF3303FB03F50C8809
:100E10002D0C03FB05F3641004F5005404FB04F4EB
:100E20009B0CC3F5FF43A0F89C36A30C4D8803EB45
:100E300043034FF4786403F500732321A0F8CC56E4
:100E4000C0F8B846C0F8BC3680F89826C0F8A0169E
:100E500030BC7047104970B40B68104C104A012523
:100E600004FB03220826002302EA0504A0F8A06779
:100E7000A0F8A45780F8AC470A60C0F8A827A0F8EB
:100E8000A237A0F8A63780F8AD37A0F8B43780F8BD
:100E9000B63770BC704700BF000100200D66190016
:100EA0005FF36E3C2DE9F001002B78D00B446CE031
:100EB00090F8B647B0F8A4570134E4B2A54280F8E0
:100EC000B64766D8D0F8A867B0F8A04706F0010783
:100ED00000251F2C80F8AC7780F8B65705D826FA85
:100EE00004F505F0010580F8AD577608C0F8A8674D
:100EF000651E002F64D0012707FA05F52E43C0F8C0
:100F0000A8671F2C4ED890F8AD77002F65D046F01B
:100F1000004626FA04FC06F001070CF0010C7608E6
:100F200080F8ADC780F8AC77C0F8A867002F42D032
:100F30003543C0F8A8571F2C07D890F8AD47002CB0
:100F400046D045F00045C0F8A857254EDFF89880F8
:100F50003768244C08FB07F8B0F8A2C74444BCEB40
:100F6000144F3460B0F8A64784BF85F00105C0F87F
:100F7000A857A412EDB205FB04F49942C0F8B0578B
:100F8000A0F8B44722F8024B09D011F8014BA4078E
:100F90008ED4B0F8B447994222F8024BF5D1BDE89F
:100FA000F001704706F00107760880F8AC77C0F8CA
:100FB000A867002FBCD126EA0505C0F8A857BAE7F4
:100FC000012707FA05F526EA0506C0F8A86798E79D
:100FD00025F00045C0F8A857B7E726F0004698E787
:100FE000000100205FF36E3C0D66190010B400F2A2
:100FF000BA7200F2CA74002322F8023B9442FAD17A
:10100000082280F8B93780F8CA3780F8B8275DF829
:10101000044B704770B443B30B4411F8016B90F864
:10102000B947B5070BD5013490F8CA57E4B280F838
:10103000B94725B1002480F8CA4780F8B94790F82D
:10104000B857042D04D9B60644BF012680F8CA67F4
:10105000A5429CBF002480F8B94700EB4404B4F8D3
:10106000BA47994222F8024BD7D170BC704700BFF3
:10107000012A0B882AD0A3F50043A0F8BA374B8881
:101080000822A3F50043A0F8BC378B88A3F50043E2
:10109000A0F8BE37CB88A3F50043A0F8C0370B8873
:1010A000C3F50043A0F8C2374B88C3F50043A0F84E
:1010B000C4378B88C3F50043A0F8C637CB8880F8C7
:1010C000B827C3F50043A0F8C8377047A3F500431D
:1010D000A0F8BA374B880422A3F50043A0F8BC3728
:1010E0000B88C3F50043A0F8BE374B8880F8B827BB
:1010F000C3F50043A0F8C037704700BF70B5012AA0
:1011000000F6740604460D463046098810D005F0F6
:1011100037F93046698805F021F9AB8847F6FF7248
:10112000A4F88438EB88C4F88028A4F8863870BD09
:1011300005F026F93046698805F010F947F6FF7387
:10114000C4F8803870BD00BF00F6740005F034B9F3
:1011500000F6740005F0D0B838B50B880446A4F842
:101160002038012A0D4600F5026049881FD004F09E
:10117000C5FFAB8847F6FF71A4F83038EB88002232
:10118000C4F82C181904C4F8282808D4C3F5FF4360
:101190007F335B00A4F83238A4F8342838BD5B00F4
:1011A00043F6FF72A4F83238A4F8342838BD04F0AE
:1011B000A5FF002247F6FF73C4F82828C4F82C388E
:1011C00038BD00BF00F5026005F02CB800F50260E4
:1011D00004F084BF012A38B504460D4600F2CC70F5
:1011E00021D00A8847F6FF73A4F8CC274988C4F8B1
:1011F000D83704F06BFEAB88A4F8E437EB881A0408
:1012000009D4C3F5FF437F335B000022A4F8E6371F
:10121000A4F8E82738BD5B0043F6FF72A4F8E63770
:10122000A4F8E82738BD0B88A4F8CC37498804F027
:101230004DFE002247F6FF73C4F8D427C4F8D83710
:1012400038BD00BF00F2CC7004F0D6BE00F2CC7006
:1012500004F02CBE00F2D46003F0FEBB00F2D460B8
:1012600003F094BB00F25C6002F09ABA00F25C609A
:1012700002F05CBA00F2F45005F01CBD00F2F4502C
:1012800005F0EABC00F26C5005F02CBC00F26C508A
:1012900005F018BB00F5B66005F038BB00F5B66088
:1012A00005F0FABB00F5A56005F052BA00F5A5609F
:1012B00005F024BA00F2145005F0FEBD00F21450FF
:1012C00005F0F0BD00F5936005F060BF00F5936098
:1012D00005F03ABF00F5856006F02CBB00F585608F
:1012E00006F010BB00F5477006F00ABC00F5477029
:1012F00006F0F2BB012A0B4649D00A88B2F5804FAE
:1013000032D9B2F5004F9ABF1111C1F50061002129
:10131000A0F8F61202EBC202920902F54062A0F8B0
:10132000F8225A88921002EB4202C2F38D02A0F812
:10133000FA229A885110921002F5005201F580416C
:10134000A0F8FE22A0F8FC12DB881A0411D4C3F521
:10135000FF437F3303FB03F30022C3F38F33A0F873
:101360000023A0F8023370474FF48061A0F8F61212
:10137000D0E7A3F5004303FB03F3C3F34D4303EBB3
:101380008303A0F800330023A0F80233704700F570
:101390003D7009885A8802F0D5BB00BF00F53D704A
:1013A00002F07CBC00F53D7002F0C4BB00F5257076
:1013B00002F0BABD00F5257002F0A0BD00F5EC709A
:1013C00002F0EABF00F5EC7002F08EBF00F5B870D5
:1013D00002F058B800F5B87002F01EB8012A10B536
:1013E00090F8783004462BD0B3B90B884FF4A04264
:1013F000A0F8683088884B88A0F50040A4F86C00FD
:10140000C98803EB8303A1F5004109041B1421677C
:1014100084F86A30626710BD8A884B88A2F5004262
:101420000888A4F86C20CA8803EB8303A2F5004265
:10143000411012041B146167226784F86A3010BDE2
:1014400083B10B884A8803EB83031B14A2F5004287
:1014500080F86A30A0F86C2000224FF4A043226785
:10146000636710BD0B8820F8683F498804F040FC92
:10147000F2E700BF683004F04DBC00BF683004F0F4
:101480000BBC00BF243005F07FB800BF243005F04E
:1014900055B800BF012A0B8831D0B3F5784F2CBF67
:1014A0004FF6FF73DB10A0F8A2374B8842F291424F
:1014B000A0F8A6378B88934218D944F6231293429A
:1014C0002DD946F6B552934225D949F24822934286
:1014D00029D94BF2E562934229D94DF66C329342F9
:1014E00094BF1C232023A0F8A03702E00823A0F813
:1014F000A037CB885B130133A0F8A4377047B3F54E
:10150000784F2CBF4FF6FF73DB10A0F8A2374B8843
:10151000A0F8A63770471023A0F8A037E9E70C23FE
:10152000A0F8A037E5E71423A0F8A037E1E71823D7
:10153000A0F8A037DDE700BF012A0DD00B88A0F886
:101540002A344B88A0F828348B885B10A0F82C3400
:10155000CB88A0F82E3470474FF6FF73A0F82A34DA
:101560000B880022A0F828344B88A0F82E245B10AA
:10157000A0F82C34704700BF012A70B453D00B88F8
:1015800090F86822A3F500431BB2C3EBC303C3F377
:101590000F2303F5D05503F5005403F54853A0F885
:1015A0002A52A0F84A429BB2002A3AD1B0F86A52B5
:1015B0005D1B18BF0125A0F86A328C884B8864082F
:1015C000B4F5E04F38BF04F500744FEAA303C3F548
:1015D000AB4234BFA4B24FF4E4447032A0F890425E
:1015E00003F5AB43C0F88822CA887033C0F88C3248
:1015F0005309941303F5E24203F5CF43012104F6A6
:10160000FC744832043380F86852C0F81842A0F8DD
:101610002C22A0F84C3280F8281280F8481270BCB6
:1016200070470125C7E790F868324FF4D0554FF462
:101630000054A0F82A52A0F84A422BB9B0F96A2205
:10164000B2F5485218BF01224FF4485547F24854AA
:1016500046F68433A0F82C42A0F86A52A0F84C3227
:101660004D880B886D08B5F5E04F4FEAA30338BFEE
:1016700005F50075C3F5AB4103F5AB434FF001042D
:1016800040F6FE7634BFADB24FF4E44570317033AE
:1016900080F8284280F84842C0F81862A0F89052BA
:1016A00080F86822C0F88812C0F88C3270BC70478D
:1016B000012A70B40B8855D0A3F500431BB2C3EBCD
:1016C000C303C3F30F2390F8642703F5D05503F544
:1016D000005403F54853A0F82657A0F846479BB29C
:1016E000002A3DD1B0F866575D1B18BF0125A0F850
:1016F00066370B8843F2F054A3F500439BB2A0F881
:101700009837A0F89A374B8847F2F0525B08B3F548
:10171000E04F3ABF03F500739BB24FF4E443C0F8C7
:101720008447C0F8882747F2485446F68432A0F828
:101730008C37A0F82847A0F848278A880123A0F80A
:101740008E27C98840F6FE7280F86457A0F890177B
:1017500080F8243780F84437C0F8142770BC7047ED
:101760000125C4E7A3F500431BB2C3EBC303C3F3D6
:101770000F2390F8644703F5D05603F5005503F5A1
:101780004853A0F82667A0F846579BB224B9B0F892
:1017900066279A1A18BF0122A0F866370B8847F20D
:1017A0004855A3F500439BB246F68434A0F8983719
:1017B000A0F89A37A0F82857A0F84847498801238D
:1017C000D940B1F5E04F38BF01F5007140F6FE7623
:1017D00043F2F05547F2F05434BF89B24FF4E4417C
:1017E000C0F81467C0F88457C0F8884780F86427A9
:1017F00080F8243780F84437A0F88C1770BC704705
:10180000F8B57C4E05460F46002407E0E35805EB8B
:10181000600018349847B4F51C7F0ED0331958680F
:10182000744BC207F2D54010E3582A5818342844A4
:10183000D3589847B4F51C7FF0D105F5B87001F086
:10184000EBFD7C1E674205F5EC70674102F04CFD34
:1018500005F5257002F052FB05F53D7085F8F07234
:1018600002F068F9644840F6FF7200232821C5F8A9
:101870007824C5F88034C5F87414C5F87C0485F85C
:10188000F47205F1680004F007FA05F1240004F091
:1018900055FE05F5477006F01FF905F5856006F061
:1018A00031F805F28E4305F29642002423F8024BEC
:1018B0009A42FAD1042385F88C3405F5936085F8B3
:1018C0008D4485F8964405F03FFC85F8D07405F208
:1018D000145005F0E7FA494A49481168494B00FBA2
:1018E00001F10B4403F0010701210820A5F8A4171A
:1018F000C5F8A837A5F8A007A5F8A24705F5A56083
:10190000A5F8A64785F8AD47A5F8B44785F8B647CA
:1019100085F8AC77136004F0F1FE05F26C5004F02A
:10192000D1FF05F5B66005F0B7F805F2F45005F003
:1019300093F905F25C6001F0F9FE05F2D46003F062
:1019400025F805F2BA7205F2CA71002322F8023BAB
:1019500091421C46F9D1082285F8B93785F8CA3773
:1019600085F8B82705F2CC7004F0A0FA214F05F5F0
:10197000026004F0B3FB05F10C0605F6740004F0F8
:10198000BBFC0FCF2C706C7085F8784085F8FA4757
:1019900085F8464885F894480FC697E8030086E81E
:1019A00003002869C10717D4EB6805EB600098476E
:1019B0002B6ADA0719D55B10E958EA69E8188E58DE
:1019C000AC1C214615F80A2BB0474FF4004324F80D
:1019D000023BA542F9D1F8BD40102A58EB682844D3
:1019E000D35898472B6ADA07E5D405EB6300EE6914
:1019F000E6E700BFB888000800C0FF3F00010020F4
:101A00000D6619005FF36E3C2DE9F047064696F827
:101A1000611190F8600196F86231082286F864112D
:101A200086F8630186F8653106F5BE711AB106F5D0
:101A3000B37006F091FEB6F87491344C09EB890945
:101A40004FEA8909324A4C440023944286F86F31A8
:101A500086F8703186F8713186F8723106F26315B6
:101A600036D9A6F8743106F05DFB2A4C204606F004
:101A700099FB294B04F580649C42F7D1274FDFF88E
:101A8000A480DFF890A05446C4EB05090AF1100ABF
:101A9000204659F80410043406F0A6FB5445F7D14B
:101AA00006F27312002115F8013B1944954289B2E0
:101AB000F9D1384606F0C8FB4046B6F8741106F076
:101AC000C3FBB6F874310133A6F87431BDE8F08772
:101AD00006F028FB124B24F47F704B4423F47F73F1
:101AE00020F0030023F0030309F1006A83420AF5A2
:101AF000E03ADFF83080094F04D006F053FBC844C9
:101B00004F44C0E7C8444F44BDE700BF14C00108BC
:101B1000FFFF010800C001080000020810C0010812
:101B2000FFBF010812C001082DE9F04FDFF80C9348
:101B300000F5AA78D9F800300446013383B0404656
:101B4000C9F8003001F0CCFB2646002518F8017BCF
:101B5000802F30D0002F4AD1336B1BB1EAB2012A5B
:101B600040F2B1800135042D06F10406EED194F85F
:101B70009031002B40F0958094F86031D9F8002026
:101B8000022BC2F3C212AD494FD0032B40F0CE80DE
:101B9000012A02D0D61E72427241D9F8001084F890
:101BA0005121CD0540F1CC8094F86221032A67D8F9
:101BB00094F861114BE0D4F84C3104F14801581C01
:101BC00001EBC30200274FF0040E00F01F0001F8E4
:101BD00033E055805760C4F84C01D9F80030D9F88B
:101BE00000206364326318F8017C002FB4D07F2F8B
:101BF000B8D1336B002BB5D0D9F80010D4F84C21F4
:101C0000013104F14800571CCB1A4FF0040E00EBD1
:101C1000C20107F01F0700F832E04B604D80C4F8A6
:101C20004C71D9F8003063649CE7571E7A4209680A
:101C30007A4184F85121CA0540F1878094F86111F6
:101C400003291ED8032B0CBF94F862210A46043ADC
:101C5000122A00F2B181DFE812F095018D017901BD
:101C600081017D01890181017101910185018D0150
:101C70008901750185017D01990179017501710164
:101C800011460439122900F24E81DFE801F09595E2
:101C90009595956262626262A1A1A1A1A1A19B9B9F
:101CA0009B0000230F21012284F8501184F8512158
:101CB00084F8523184F8533104F5A87001F0A4FA85
:101CC00003B0BDE8F08FD9F800005C49C31AB3F542
:101CD000167F7FF747AFC2F10102D2B2224492F8D9
:101CE00054216AB994F87B3167630133DBB2032B6B
:101CF000276384F87B3100F0A78018F8017C76E731
:101D0000D4F84C2104F1480E02F1010C0EEBC20094
:101D10004FF0040A0CF01F0C0EF832A0436045800F
:101D2000C4F84CC10B6863643763E6E70A6803F0E4
:101D30000101D00584F8511180D494F8611181E734
:101D400094F8611194F8622181E794F861110A46D0
:101D50007DE7022394F8611184F850312346002274
:101D600001AD0139C9B2152938D8012000FA01F1B5
:101D700047F60370084000283BD13148084000284E
:101D800054D189032AD5B3F876114911A9540233E5
:101D90005AB32C4B5A780A2A38D09DF804209DF863
:101DA000053084F8522184F8533104F5A87001F00D
:101DB0002BFA03B0BDE8F08F012384F8503194F87A
:101DC0006111CBE7082384F8503194F86111C5E71D
:101DD000042394F8611184F85031BFE7B3F9761108
:101DE0000233C911A954002AD3D194F862110122F7
:101DF000B7E7B3F9761140F2991000FB01F109122F
:101E000001F50041A1F30821A954C0E793F8401E51
:101E100093F8A8244A4084F8502193F8D12493F8E9
:101E2000693E52425B42D2B2DBB2BAE7B3F97611F5
:101E30000029B8BF49420912A954A8E72C1800206C
:101E400004003800FC040020DFF888A1DFF88CC112
:101E50000AF10C0EBCE80F00AEE80F009CE803008E
:101E6000DAF810300A228AF80120DA0784F87B7148
:101E70008AF878708AF8FA778AF846788AF8947837
:101E80008EE8030055D55B1053F80A10DAF80C20E1
:101E900003EB0A008A589047DAF820204D4BD70709
:101EA00040F181805210D758D969D0187B58DFF89B
:101EB00024B19AF800200BF102019847DFF81CE1E9
:101EC0000BF6A417BEE80F000FC79EE80300DAF870
:101ED000A83987E803000A2000218AF89909D80761
:101EE00087F8DE178AF8101A87F82A1887F8781802
:101EF00050D40BF69817DBF8A42907EB6300904742
:101F0000DAF8B839334AD90751D55B10D2F8B42979
:101F1000F958F81851F802C09AF898292E49E04764
:101F200018F8017C63E6102384F8503194F86111AD
:101F300014E70AEB6300DAF80C20ACE70A2384F814
:101F400050310BE70C2384F8503107E7092384F85C
:101F5000503103E70D2384F85031FFE6072384F85E
:101F60005031FBE60E2384F85031F7E6062384F85F
:101F70005031F3E6052384F85031EFE60B2384F863
:101F80005031EBE6032384F85031E7E60F2384F861
:101F90005031E3E65B100BF69817DBF8A429F958EB
:101FA000F8188A58ABE703EB6200DB697FE7D2F8E9
:101FB000B4C907EB6300AFE7032B0CBF94F86231A1
:101FC0000B4603F00303012202FA03F384F85031B5
:101FD000C4E600BFFC040020960E0020A88900087B
:101FE000F0B590F86031056944698169C26983B0D0
:101FF000012BADF80050ADF80240ADF80410ADF87B
:10200000062063D033B34B4C0023206A2370C107F2
:102010001CD540100259E3692044D3580022464998
:102020009847D4F8B8090023C20784F89839414B7F
:102030003AD503F6981240108158D3F8B4391044B9
:10204000CB583E490022984703B0F0BD04EB600036
:10205000E369E3E7384A6E46941E276A6D4603CE6D
:102060001060516003CDFD0702F8023CC2F89809E8
:10207000C2F89C191FD57F103959E26938198D585B
:1020800000222D49A847D4F8B8290023D00784F8A6
:102090009839284B13D503F698115210D3F8B43958
:1020A00054585018E358CCE703F6981202EB60003E
:1020B000D3F8B439C5E704EB6700E569E0E703F658
:1020C000981000EB6200D3F8B439BAE71A4A0098C6
:1020D000941E216A10600198CF0702F8023CC2F8F2
:1020E00098091BD549100D59E2690819AD5801220C
:1020F0001149A847D4F8B8290123D60784F898399C
:102100000C4B0FD503F698115210D3F8B43954582C
:102110005018E35809490122984795E704EB6100FC
:10212000E569E4E703F6981000EB6200D3F8B439F0
:10213000F0E700BFFC040020FE040020960E002003
:102140002DE9F04F90F8603183B0012B06460F4621
:10215000144640F2C58040F6981808FB01F85D4926
:1021600007EB4203DFF8749111F803E008EB09056F
:10217000C31995F8782083F86141BEF102035842F3
:10218000584185F801E0CAB9C0B105F18003C5F82E
:10219000482103F18002002143F8041B9A42FAD13E
:1021A00005F59273002142F8041B9342FAD105F51C
:1021B000A471002243F8042B9942FAD1BEF1160C07
:1021C000DCF1000151EB0C01BEF1180ADAF100025A
:1021D00052EB0A0295F89438BEF1190B85F8FA17FC
:1021E000DBF1000185F8780085F8462851EB0B01FA
:1021F000CBB9C1B1C5F8643905F61C1205F69C03CC
:10220000002043F8040B9A42FAD105F5146300202C
:1022100042F8040B9342FAD105F66410002243F809
:10222000042B9842FAD12C4B0EEB4E0A03EBCA0A50
:1022300005F10C0C85F89418BAE80F00ACE80F0013
:102240009AE80300BEF1020F8CE803000AD0BEF149
:10225000190F07D02869C20700F17981EB6805EBF7
:1022600060009847286AC30723D540102A58EB69B5
:102270002844D358A91C19F808209847162C25D8AB
:10228000DFE814F08F018F018F018F01830183013B
:10229000830183018301770177017701770177015A
:1022A0006B016B016B016B016B016B011B001B0070
:1022B0001B0005EB6000EB69DCE796F86031012B51
:1022C0008CBFF61986F89A4186F8994103B0BDE8AB
:1022D000F08F00BFC0560108B8880008FC04002039
:1022E000DFF82493C44D19F812E095F87830BEF168
:1022F000020BDBF1000086F8622186F8612185F887
:1023000001E050EB0B00CBB9C0B1C5F8483105F581
:10231000807105F18003002243F8042B8B42FAD12F
:1023200003F12401002243F8042B8B42FAD103F17C
:102330002401002243F8042B8B42FAD1BEF1160C83
:10234000DCF1000151EB0C01BEF11808D8F10002DC
:1023500052EB0802BEF1190A85F8462895F8943820
:10236000DAF1000252EB0A0285F8FA1785F87800D4
:10237000A1490192D3B9019AC2B1C1F8643901F6F9
:102380009C0301F61C11002243F8042B8B42FAD166
:1023900003F12401002243F8042B8B42FAD103F10C
:1023A0002401002243F8042B8B42FAD1DFF85C822F
:1023B000DFF844B20EEB4E0A08EBCA0A0BF10C0C24
:1023C000BAE80F00ACE80F009AE80300019BBEF1E9
:1023D000020F85F894388CE803000CD0BEF1190F79
:1023E00009D0DBF81000C30700F1F480DBF80C30F3
:1023F0000BEB60009847286A7F4BC10740F1DD80F6
:102400004010C158DA69184451F802C07B4B09EBFF
:10241000440913F8022C1946A3F1020AE04799F87F
:1024200001E095F8103ABEF10202504285F899E9B0
:102430005041CBB9C0B1CAF8E03A0AF698210AF681
:102440001823002243F8042B8B42FAD103F1240114
:10245000002243F8042B8B42FAD103F1240100221D
:1024600043F8042B8B42FAD1BEF1160ADAF10009C7
:1024700059EB0A09BEF1180B41F22C23DBF10001E4
:10248000EA5C51EB0B0141F2DE1341F2921CE9547C
:10249000BEF1190305F80C90D3F1000C85F8100A71
:1024A0005CEB030C5448E2B9BCF1000F19D0544B5B
:1024B00041F2FC2903F1800140F80920002243F891
:1024C000042B8B42FAD103F12401002243F8042BA0
:1024D0008B42FAD103F12401002243F8042B8B42F2
:1024E000FAD1DFF814A10EEB4E0308EBC3080AF68D
:1024F000A419B8E80F00A9E80F0098E8030041F21A
:102500002C23BEF1020F89E8030005F803C05ED05A
:10251000BEF1190F5BD0DAF8A809C10762D40AF638
:102520009818DAF8A43908EB60009847D5F8B8098C
:10253000314BC20746D5401058F80020D3F8B439C3
:102540004044D35895F898292E49984796E640106C
:102550002A58EB682844D35883E696F86031012B5B
:102560008CBFF61986F8984186F8974103B0BDE80C
:10257000F08F96F86031012B8CBFF61986F89641E2
:1025800086F8954103B0BDE8F08F96F86031012BD5
:102590008CBFF61986F8944186F8934103B0BDE8E4
:1025A000F08F96F86031012B8CBFF61986F89241B6
:1025B00086F8914103B0BDE8F08F03EB6000D3F8DB
:1025C0001CC023E7D3F8B43908EB6000BAE70AF679
:1025D0009818ABE7401050F80B20DBF80C3058444B
:1025E000D35807E740100AF6981858F80020DAF890
:1025F000A4394044D35898E7FC040020FE0400208E
:1026000030170020960E0020C0560108B888000838
:102610002DE9F84FC0F88C11074600F5A87000F0BE
:102620008FFD07F5AA7000F027FE07F5AC7000F0EB
:10263000DBFC86493A46086807F110030130086060
:10264000002142F8041B9342FAD107F1200800222E
:1026500043F8042B9845FAD107F13009434600228C
:1026600043F8042B9945FAD107F2851B5B4607F224
:10267000891A002203F8012B5345FAD187F87A21F1
:1026800073484FF4804105F055FED0F1010038BF8A
:102690000020704D87F8900107F2631640F2323E39
:1026A00007F27314AC46BCE80F00B260F360306010
:1026B00071603346002213F8011B0A44A34292B210
:1026C000F9D12B8A698A93424BD0634B143D9D42CA
:1026D0000EF1FF3EE6D10023A7F8743187F8603190
:1026E00087F8613187F8623187F86E3158484FF4C6
:1026F000005105F01FFE40B997F86E31384683F05F
:10270000010387F86E31FFF77FF93846FFF768FC61
:102710003846002197F86121FFF712FD3846012164
:1027200097F86221FFF70CFD0023042409200E21F5
:10273000142287F87B3187F8923187F8913187F836
:10274000944187F8934187F8960187F8950187F8B7
:10275000981187F8971187F89A2187F89921BDE891
:10276000F88F7145B1D197F8651197F8633197F8F3
:1027700064010EF1010E082287F86211A7F874E1D6
:1027800087F8603187F8610107F5B371002A47D1F6
:10279000023BDBB2012BA9D84FF4807348F8043B0D
:1027A000C145F9D100230BF8013BD345FAD12B4C9D
:1027B0001E4604F6981A3D4695F87C3104EB06094E
:1027C0001B02A9F80230226A244BD10739D55210D6
:1027D00052F803E0D969D0185EF80130DFF87C8048
:1027E000227808F10201984795F880311B02A9F878
:1027F0009A39D4F8B839DA071ED55B10D8F8B4295D
:102800005AF803100AEB030051F802C002361449CB
:1028100094F89829E047082E05F10105CCD165E729
:1028200007F5BE7005F098FF97F86031023BDBB208
:10283000012B3FF65BAFAFE7D8F8B4C90AEB6300F2
:10284000E4E703EB6200DB69C8E700BF2C18002057
:1028500000100140E8FF0108ECBF0108FC04002063
:10286000960E002090F890312DE9F04704461BB1F8
:102870004D8845B1BDE8F0874B88032BFAD8DFE8D7
:1028800003F0244E676CD0F88C01FDF759FC20460C
:1028900084F8605184F8615184F8625184F86E5173
:1028A000FFF7B2F82046FFF79BFB2046294694F835
:1028B0006121FFF745FC2046012194F86221FFF7D2
:1028C0003FFC84F89051BDE8F0874B68B3F5167F64
:1028D00068DC90F86031012B40F2AD8103F0010318
:1028E000C3F1030380F8603100F1300100F12003EF
:1028F0004FF4807243F8042B9942F9D104F2851306
:1029000004F28911002203F8012B8B42FAD12046F0
:10291000FFF766FB2046BDE8F047FFF775B890F873
:1029200060314968032B0CBF90F8622190F8612157
:10293000B1F5167F16DD032A2CD9082A00F288810A
:10294000012B8ABFC21890F8952192F8932113E0C9
:10295000002380F84030BDE8F087002380F8413044
:10296000BDE8F087032A11D9082A00F269810132F3
:10297000D2B2092A08BF0422991E2046C9B2FFF725
:10298000DFFB2046BDE8F047FFF73EB8013202F01A
:102990000302F1E7012B8ABFC21890F8932192F845
:1029A0009121E9E790F86231C74F90F86011C74D67
:1029B00017F813E00231BEF1020A01F0030195F8A5
:1029C000782080F8601180F86131DAF1000085F834
:1029D00001E050EB0A00CAB9C0B1C5F8482105F1C1
:1029E000800305F58071002243F8042B8B42FAD155
:1029F00003F12401002243F8042B8B42FAD103F1A6
:102A00002401002243F8042B8B42FAD1BEF11606B2
:102A100071427141BEF1180CDCF1000252EB0C0264
:102A200095F89438BEF11909D9F1000885F8FA171C
:102A300085F8780085F84628A44958EB0908DBB9E1
:102A4000B8F1000F18D0C1F8643901F69C0301F603
:102A50001C11002243F8042B8B42FAD103F124010C
:102A6000002243F8042B8B42FAD103F12401002207
:102A700043F8042B8B42FAD1954EDFF850A20EEBAF
:102A80004E0906EBC9090AF10C0CB9E80F00ACE8D5
:102A90000F0099E80300BEF1020F85F894888CE8D6
:102AA00003000CD0BEF1190F09D0DAF81030D807A6
:102AB00000F1E580DAF80C200AEB630090472A6AFF
:102AC000824BD10740F1D380521052F803E0D9690C
:102AD000D0185EF801C07F4B13F8022C1946A3F101
:102AE0000208E04794F8613195F8102A07EB430794
:102AF0007F78BB1E584285F899795841CAB9C0B150
:102B0000C8F8E02A08F6182308F69821002243F8AE
:102B1000042B8B42FAD103F12401002243F8042B49
:102B20008B42FAD103F12401002243F8042B8B429B
:102B3000FAD1B7F11608D8F1000C5CEB080CB7F12C
:102B4000180941F22C23D9F10001EA5C51EB09018B
:102B500041F2921EB7F1190A41F2DE1305F80EC0D8
:102B6000DAF1000C85F8100AE95458485CEB0A0CBD
:102B7000E2B9BCF1000F19D0574B41F2FC2E03F122
:102B8000800140F80E20002243F8042B8B42FAD13A
:102B900003F12401002243F8042B8B42FAD103F104
:102BA0002401002243F8042B8B42FAD1DFF81C8168
:102BB00007EB470306EBC30608F6A41E0FCEAEE8EC
:102BC0000F0096E8030041F22C23022F8EE8030049
:102BD00005F803C050D0192F4ED0D8F8A839D8071F
:102BE00056D408F69816D8F8A42906EB6300904747
:102BF000D5F8B839354AD90734D55B10D2F8B4299D
:102C0000F158F0188F58354995F89829B84704F1CC
:102C1000200304F130014FF4807243F8042B9942F1
:102C2000F9D104F2851304F28911002203F8012B73
:102C30008B42FAD16BE6C3F1010380F8603166E69E
:102C40000D2A2ED80132D2B20E2A08BF092293E6ED
:102C50000D2A2ED8012B8ABFC21890F8972192F81E
:102C6000952189E6D2F8B47906EB6300CBE703EB54
:102C70006200D3F81CC02EE708F69816B8E75B1080
:102C800053F80A10DAF80C2003EB0A008A5815E70B
:102C90005B1008F69816D8F8A429F158F0188A584D
:102CA000A5E7132A1CD80132D2B2142A08BF0E227B
:102CB00062E6132A1DD8012B8ABFC21890F8992109
:102CC00092F8972158E600BFC0560108FC04002086
:102CD000B8880008FE04002030170020960E00205F
:102CE000162A3FF649AE0132D2B2172A08BF142283
:102CF00042E6012B8ABFC21890F8912192F88F21E9
:102D00003AE600BF2DE9F84390F8903104460D46AD
:102D1000FBB14B884A680344121283F87C2190F877
:102D20007D3190F87C21803B5B10803A03EBC2023E
:102D3000D0F88C3152421A8090F87F1190F87E21A1
:102D400080394910803A01EBC20252425A80BDE8F4
:102D5000F88390F86031032B4CD8DFE803F04D8006
:102D600002024888023B5FFA80FC0CEB8306F6B255
:102D700026444F6896F87C9140F69812A9EB2729D3
:102D80001FFA89F91FFA89F802FB03F318F4004FC0
:102D900018BFC9F10008544A94F86E9103EB020180
:102DA00018BF1FFA88F8B9F1000F08D0204490F836
:102DB000850120B90FFA88F8B8F1020F1ADC086A09
:102DC00001EB4C0CACF80270C7076CD5401051F801
:102DD00000C0D1F81CE008445CF80E70D25C0231EF
:102DE000B8476B6801221B1286F87C316B881C4443
:102DF00084F88521BDE8F8833B4E8A784B68306AB9
:102E000006EB42025380C20748D540108259F3694D
:102E1000304452F803C0354B194613F8022C9F1E5C
:102E2000E047A9786B68D6F8B82906EB4101A1F80C
:102E30009A39D3072BD507F698135210D7F8B4193F
:102E4000D758D0187B5896F89829294998476A8806
:102E50006B6814441B1284F87C31BDE8F8834B88FE
:102E6000012B2BD9204E023BDBB24968D6F8B8299A
:102E700006EB4303A3F89A19D30718D506F698135F
:102E80005210D758D6F8B419D0187B58DBE707F69C
:102E9000981000EB6200D7F8B439D4E706EB600075
:102EA000D6F81CC0B7E701EB6000CF6996E706F6DD
:102EB000981000EB6200D6F8B439C4E70A4A4868B3
:102EC000116A02EB43035880C80709D549108E5890
:102ED000D3698818F358054911F8022C9847B6E7CA
:102EE00002EB6100D369F6E7FC040020FE04002039
:102EF000960E00202DE9F041804682B000F5AB77B8
:102F000004460026236837F8021FC3EBC305226975
:102F1000236A0D44ED1099188D42C3EB020225601F
:102F200002DA954200DD4BB940466946ADF80260D1
:102F30000195FFF7E7FE4023256123620136042E49
:102F400004F10404DED102B0BDE8F08130B5D0F860
:102F50004C21D0F8483183B0D31ADA06044618BFA2
:102F60006D4608D12AE022B3D4F84C21D4F8483178
:102F7000D31ADB0622D0D4F8483104EBC30248321E
:102F800092E8030085E803009DF80020013303F078
:102F90001F03042AC4F84831E5D1019BCBB9BDF821
:102FA0000230022B1AD0032BDED1012384F84130EA
:102FB000DAE720466946FFF7A5FED5E7094B626CC4
:102FC00019688A1AB2F57A7F01D91B68636403B065
:102FD00030BD20466946FFF745FCC5E7012384F86C
:102FE0004030C1E72C1800202DE9F04393B00124B4
:102FF00000250F2301A907463C48ADF804308DF8A1
:1030000006408DF80750DFF8F09005F039F93848A0
:1030100004F0DEFF04264FF4807C4FF4806E202203
:103020004FF40053324807A94FF08008CDF834C060
:10303000CDF838E00F921093089709950B951195EC
:10304000CDF81C900A96CDF8308005F041F8214665
:10305000274805F05DF8274804F0E0FE4FF46022B1
:103060004FF40063234802A90492059302958DF85A
:103070000C408DF80D408DF8186004F005FF2246D5
:103080001C480321072304F055FF02210A46194872
:10309000072304F04FFF214616480322072304F0BC
:1030A00049FF294632461348072304F043FF1148DD
:1030B000214604F00DFF0F4804F01EFF0D4804F0F8
:1030C00021FF0028FAD10B4804F020FF094804F042
:1030D00023FF0028FAD10748012104F003FF054827
:1030E000012104F01DFF13B0BDE8F083000801408A
:1030F00008000240002401404C24014030B583B058
:1031000001A94FF48053022548240B48ADF8043040
:103110008DF806508DF8074005F0B2F84FF40063C3
:1031200001A906488DF806508DF80740ADF8043027
:1031300005F0A6F803B030BD00080140000C0140C6
:10314000F0B52E4E89B002256946F02310272C4891
:103150002C4CADF800308DF802508DF8037005F05E
:103160008FF8694630464FF480638DF802508DF831
:103170000370ADF8003005F083F80322694630464D
:103180001823ADF8002008268DF802508DF8033082
:10319000002505F075F83F232046ADF80830ADF85E
:1031A0000460ADF80A50ADF806508DF80C5005F0EB
:1031B00077FA204601A905F033F90127602320465C
:1031C00004A9ADF81030ADF81650ADF81850ADF8B0
:1031D000127005F0CFF92046314605F07BFA204603
:1031E00004A905F00FFA2046314605F07BFA204687
:1031F000394605F03DFA09B0F0BD00BF000C0140B2
:10320000000801400004004038B5194DC17804465B
:103210008908284605F074FAA1782846890805F03F
:1032200071FA627813484FF4806105F089F82278CA
:1032300005F58235284602F00102102105F080F8DC
:103240002278284602F00202202105F079F822783F
:10325000284602F00402402105F072F82278284640
:1032600002F008028021BDE8384005F069B800BFCF
:1032700000040040000C014030B5042283B0FF215F
:1032800005F0D0FA0225482401A910231148ADF811
:1032900004308DF806508DF8074004F0F1FF01A9C5
:1032A0004FF480730C48ADF804308DF806508DF85B
:1032B000074004F0E5FF4FF4C04301A907488DF82B
:1032C00006508DF80740ADF8043004F0D9FF03B084
:1032D00030BD00BF000C014000080140001001405B
:1032E000F8B510210446C578134805F023F86D00A1
:1032F000EDB22843E0704FF480711048A77805F0D4
:1033000019F87F000E4DFFB23843A0704FF4005102
:103310002846267805F00EF87600F6B2637830433A
:1033200020704FF4804128465D0005F003F8EDB2AF
:1033300028436070F8BD00BF000C01400008014048
:103340000010014030B5144685B00D4604F09EFCD7
:103350002CB14FF000604FF4804104F055FD44F66D
:103360001D20012105F038F844F20600012105F086
:103370003FF80120014605F023F80121174804F029
:10338000E5FF4FF4404005F011F800241448ADF873
:103390000850ADF80440ADF80A40ADF806408DF88D
:1033A0000C4005F07DF901A90D4805F039F801211F
:1033B0000B4805F05DF94FF4A06004F0E3FC19221E
:1033C000012368468DF801408DF802408DF80020F9
:1033D0008DF8033004F0E0FC05B030BD0001300092
:1033E000002C014070B4084B084A0948F0265A6086
:1033F000002580F82360072401219D600A461C6097
:10340000044870BC05F042B910E000E03F1901002B
:1034100000ED00E0002C01402DE9F00F002340F604
:10342000FD7B4FF4845A4FF0010940F60C584FF4DD
:103430004067C0264FF4786547F281744FF0300C36
:103440004FF44851FF22C0F82CB0A0F83EA080F8FD
:103450003C90C0F8048087618662C565A0F8404052
:10346000C0F814C00166426403608360C360C36136
:10347000036203634363036543654366BDE8F00F7E
:10348000704700BF2DE9F00F8CB002910492002B21
:1034900000F03C81076E466E0897476CB0F85C20E0
:1034A0000396C66A0597029F07920A964268866944
:1034B0001F440992016D426DC568046A0B96069718
:1034C000DEE0C669D0F80890D0F81080D0F824C0AB
:1034D000076B099BB9F1000F05FB03F54FEA1535A2
:1034E000C56009DD09F1FF3383602BB988EAE87311
:1034F000A3EBE8731D44C5600B9BB8F1000F03FB01
:1035000004F4B4BFC5F10008A846240B002E0462E1
:103510000BD008F5804808DD013EC6612EB98CEA63
:10352000EC76A6EBEC7634440462436B0A9EBCF165
:10353000000F03FB06F3B4BFC4F1000CA446C4445F
:103540001E0B002FCDF804C0466340F3C480013F3A
:103550000763002F40F0C180876B002FB8BF7F4208
:10356000374447634FF00009079F90F83C60B94427
:103570001FFA89F9002E00F0A1800FFA89FCB0F93A
:103580004080654F654E4FEA4848A0F83E904FEAAC
:103590004C4C4FEA186907F1020A3AF819A037F8BB
:1035A000197006F1020B4FEA1C6936F819603BF8F6
:1035B00019904FEA18284FEA1C2CC7EB0A0AC6EBF1
:1035C00009091FFA88F81FFA8CFC0CFB09FC08FBA0
:1035D0000AF806EB1C4607EB1847019BBFB2B6B2D0
:1035E0004FF0000BC764866480F83CB04FEA231CA0
:1035F000059B7BB1B1F5805F40F38380A1F5006945
:103600004FEAE9094FEA2118059B4F4408FB03F8EC
:1036100006EB682602FB06F802FB07F701EBE83130
:10362000DFF8FC80019B4145A3EBE73762DAC0F885
:10363000508041467F1A07FB06F6394B02EBE63213
:103640009A4250DA43651A46039E0CEB0203089F28
:103650009B1B07FB03F306EBE33313F5004F4366B5
:103660003EDDB3F5004FA8BF47F6FF7652DB049F5F
:1036700027F8026B0497029E069FBE4246D0039332
:10368000029E16F8013B9B0702967FF51AAF07686A
:10369000836A4669DFF88C80DFF88CC007F1010986
:1036A00001365F1C44F25063C0F80890C66107639E
:1036B000C0F81080C0F824C083630AE7B0F93E6008
:1036C0000FFA89FC66457FF45AAF019EC76C4FEA3A
:1036D000261C866C8CE73FF445AF4FF4086943E73E
:1036E00048F20106C3E7B2F5004FA8BF47F6FF72E4
:1036F0004265A9E7B1F5004FA8BF47F6FF71016524
:1037000098E74FF000094FF080087DE70CB0BDE866
:10371000F00F70479EB2AAE708250108B8520108C9
:103720000180FFFF333304003DCAFFFF2DE9F00F96
:1037300040F6FD734FF4845B4FF0010A40F60C59DC
:103740004FF03008C0274FF478664FF4004547F239
:1037500081744FF4406C4FF44851FF22C362002340
:10376000A0F83EB080F83CA0C0F80490C0F81480E7
:103770008762C6654567A0F84040C0F818C001667A
:10378000426403608360C360C36103620363436395
:1037900003654365A0F86E304366BDE8F00F7047DF
:1037A0002DE9F00F8CB003910492002B00F0AD8155
:1037B0004768466F0997C768426E01978769046E2C
:1037C000751005F57F550B97039F02923F35C26A2E
:1037D0000794446C1F4405EBA6050A920594016DFD
:1037E000426D046A06970895DEE0036BC66990F89F
:1037F0003CA08768D0F81090D0F824B0B0F85CC036
:103800000093019D099B002F05FB03F84FEA183533
:103810000195C56009DD013F876037B989EAE9771D
:10382000A7EBE9773D440195C5600B9DB9F1000F09
:1038300005FB04F4B6BF019B019F5F42240B002EE1
:1038400004620BD007F5804708DD013EC6612EB942
:103850008BEAEB76A6EBEB7634440462466B0A9B6C
:10386000009D06FB03F6BBF1000FB4BFC4F10008D6
:10387000A046360B002D4744466340F31281013DBC
:103880000563002D40F00F81856B002DB8BF6D42A0
:10389000354445630025AC441FFA8CFCBAF1000F97
:1038A00000F0F3800FFA8CF6B0F94080994D9A4BF6
:1038B0004FEA4848A0F83EC076044FEA186C05F17C
:1038C000020939F81C9035F81C5003F1020A4FEA3E
:1038D000166C33F81C303AF81CC04FEA1828360A28
:1038E000C5EB0909C3EB0C0C1FFA88F8B6B208FB4C
:1038F00009F806FB0CF605EB184503EB1643ADB2D1
:103900009BB24FF0000AC564836480F83CA04FEA84
:103910002719059E7EB1B1F5805F40F3D580A1F5F2
:1039200000684FEAE8084FEA211C059E45440CFB5D
:1039300006FC03EB6C2302FB03FC02FB05F501EB29
:10394000EC31DFF8D8C1A7EBE535614580F2B580F1
:10395000C0F850C061466D1A05FB03F36F4F02EBD0
:10396000E332BA4280F2A28047653A46029F079B43
:1039700009EB0206F61B03FB06F6089D07EBE6378C
:1039800005FB07F31B1413F5004F049ECCBF9BB23D
:1039900048F201034766029726F8023B039F069B05
:1039A00004969F4200F0B180039D15F8013B9B07F0
:1039B00003957FF51AAFDFF87081594ED8F80030C3
:1039C000584D06FB03F3B0F868701D44002DB0F9A4
:1039D0006EC04FEAA70780F28C800CEB070303F55B
:1039E000FF467F364FF6FE794E4572D9C7EB0C0382
:1039F00013F5004F6DDC4FF4406CE14648F2010BCB
:103A0000474E484B06FB05F5B0F86A702B441D1471
:103A100007FB05F7B0F870604FF6377506EBA74661
:103A2000AE42B8BF354625EAE575C5F57F45FF3599
:103A300005FB05FA4FEA1A4A05FB0AFA07684669C8
:103A4000856A4FEA9A4AC0F85C90A0F86EB0DFF839
:103A5000DC90DFF8DCB0CAF5FF4A0135C8F8003069
:103A600001370123013644F25068A0F840A00095C8
:103A70008760C6610563C0F81090C0F824B080F874
:103A80003C309A46C0F83880BBE6B0F93E300FFAB9
:103A90008CF6B3427FF408AF4FEA2719C56C836CEC
:103AA00037E73FF4F7AE4FF40865F4E6B2F5004FA0
:103AB000A8BF47F6FF72426558E7B1F5004FA8BFAF
:103AC00047F6FF71016546E74FF000084FF0800CA4
:103AD0002BE747F6FF7B5B45B8BF9B46CBEBCB099B
:103AE0004FEA292909F578691FFA8BFB1FFA89FC2F
:103AF00086E7C7EB0C0303F5FF467F364FF6FE79EA
:103B00004E45E6D90CEB070372E70CB0BDE8F00FA9
:103B1000704700BF08250108B85201080180FFFF67
:103B20000D6619005FF36E3C000100203333040082
:103B30003DCAFFFF00224FF0FF33426102828361E2
:103B4000C36170472DE9F0078B1307783E4D3F4C5A
:103B50001B01002F0CBF2F46274603F1100903F16C
:103B6000080803F1180C8900B944B844BC4483B078
:103B70001F4489B20023FE5A38F8035039F8034035
:103B80003CF803A0A41BC5EB0A0A01FB04F401FBEB
:103B90000AFA06EB244405EB2A45A4B2ADB22D1B6C
:103BA00002FB05F504EB25442DF803400233082BF6
:103BB000E1D1BDF80030B3F5804F2CD84FF48062CE
:103BC0004280BDF80420BDF8021003EBC3039D0939
:103BD000541089109210BDF8063002F5005201EB26
:103BE000410105F54065C1F38D0104F58044428132
:103BF0001A048580C180048116D4C3F5FF437F3346
:103C000003FB03F30022C3F38F338281C38103B02C
:103C1000BDE8F0077047B3F5004F9ABF1A11C2F51F
:103C2000006200224280CCE7A3F5004303FB03F3CC
:103C3000C3F34D4303EB830383810023C38103B0AC
:103C4000BDE8F007704700BF40570108F056010873
:103C500043F6FF739942A8BF1946B1F5685310B4F3
:103C60004FF0000004D513F5C06300F10100FAD451
:103C70001911094A4C1C52F8244052F8212003F033
:103C80000F03A11A03FB01F302EB231222FA00F047
:103C90005DF8044B704700BF304F01082DE9F04F2D
:103CA000B0F808C0478904464FEA2C2689483D12DF
:103CB00005F1010906F1010850F8255050F8266079
:103CC00050F8288050F82900C8EB0608281A5FFA37
:103CD0008CFCFFB20CFB08FC07FB00F787B00291DD
:103CE000616AA5EB1727A6EB1C2C05970392CDF86C
:103CF00004C06769D4F81880E669256A049103F165
:103D0000FF39002B00F0DB80DFF8E4A1BCE0E7889E
:103D1000DDF81480C7EB87376F4D3F1400266F4BDB
:103D20009D4298BF4FF0FF3519F0030F36D16C4B11
:103D30004FEA186233F812003AF812102A0E33F8DC
:103D400012303AF81220401AC8F30F2E0EFB00F082
:103D50009B1AC5F30F2E0EFB03F301EB104102EB90
:103D6000134289B2E08892B2C1F57F41FF31C2F5BA
:103D70007F43B4F802C000FB01F2FF33B4F910E056
:103D80000CFB03F3A08800EBAE1000EB124202EB39
:103D9000D33109B22046FFF75BFF049004990F442A
:103DA0005049BB0D31F81320023131F913B013B271
:103DB000C3EB0B0BC7F38F1303FB0BFBA38902EBC6
:103DC0002B4B1FFA8BFBB3B1DFF828C1464ADCF856
:103DD0000000C3F57F4102FB00F0444A0FFA8BFB61
:103DE0000244101400FB03F3FF3101FB0B3BCCF842
:103DF00000204FEA1B4B019AB61857D2310E4900EA
:103E00008A1CC6F30F233AF801C03AF802000FFAF1
:103E10008BFBCCEB000003FB00F00CEB104082B2FC
:103E2000C2F57F42FF320BFB02F2E389120C0BB3A7
:103E300012B2100400F10040DFF8BCB04FEA905C11
:103E40003BF81C100BF1020B3BF91CC080090FFA68
:103E500081FB80B2CBEB0C0C00FB0CFC01EB2C4C7F
:103E60000FFA8CFC0CFB03FCC3F57F43FF3303FB11
:103E700002C2120C039B09F1FF392282B9F1FF3F04
:103E800023F8022B03931AD0029A12F8013B9B07E6
:103E900002923FF53CAF059B05F1441518EB030872
:103EA00005F5884528BF4FF0FF3838E74FF6FF7318
:103EB0004FF400724FF4FF714FF0FF36A3E70499FF
:103EC0006761C4F81880E6612562616207B0BDE8E9
:103ED000F08F00BF102901084444440043444400CB
:103EE0001A350108203901080D6619005FF36E3C90
:103EF00018350108000100202C47010830B40023C8
:103F000001254FF4525445F6C05140F6FD7205703C
:103F10004480818042624361836183600362836283
:103F2000C36230BC704700BF2DE9F00F90B00A911A
:103F30000B92002B00F0C481826C9D49D0F83CB0FC
:103F400001FB03214569D0F83480D0F844908368A0
:103F50000E91C66A816B04955D460D93C3464B4630
:103F6000046CD0F818A005968946A846FDE090F8A4
:103F70005C5015B9890600F1FF808E4E8E4F316876
:103F80008E4D07FB01F1B0F84C700D44002DB0F8D8
:103F900056C04FEAA70780F269810CEB0701B1F523
:103FA000803FC0F06A81BCEB070140F16681017877
:103FB0004FF0000C43F28127CDF81CC0002940F0DF
:103FC0006E814188B7EB010C18BF4FF0010C7A49A4
:103FD00080F800C001FB05F578494780294431602D
:103FE000079D0029B0F84E10A0F85650B0F85A605E
:103FF0004FEAA10180F22C817518B5F5803FC0F021
:104000002C81751A40F14E8140F6E1770997002521
:10401000016A099F4FF4F0260131A0F85A50079128
:10402000476265468162066308960BF1387B0BF5A3
:10403000A33B09F188690BF5D77B09F5882908F1BD
:104040000D7809F2444908F59F3804F14F744FEA9E
:10405000DB7108F5BE7804F5414403F17C7301EB94
:10406000D971E03403F5163302F1B36201EBD87174
:10407000BF3302F5CC3201EBD47102F2991201EB9D
:10408000D37101EBD27189B20903C0F834B0C0F822
:104090003890C0F83C800464436482640391002D2E
:1040A00040F090800569C6680D9F7FB10499B1F515
:1040B000805F40F3C980A1F5006C4FEAEC0C091158
:1040C0000D9F654401FB07F106EB61260AFB06F72D
:1040D00004990AFB05F501EBE731394FDDF80CC017
:1040E000B9420491ACEBE53558DA47610497049F77
:1040F000ED1B05FB06F6324F0AEBE63ABA4543DA0A
:104100008761BA460025059E099F06FB07F1090B4A
:104110000591C162079900290ADD0139816239B927
:104120000899059E0029B8BF49420E440596C6620B
:10413000089F002FB6BF059E05997142091105FB26
:1041400001F1891311F5004F7BDDB1F5004FA8BFD8
:1041500047F6FF71C0F2B8800B9FDDF838C027F832
:10416000021B62450B9700F0AB800A9F17F8011BFA
:104170008D070A973FF5FBAE416A866A076B0578A3
:1041800009910796089750E7BAF5004FC0F29E8054
:1041900047F6FF718A4681610D46B4E70499B1F58F
:1041A000004FA9BF47F6FF714161416104919EE74D
:1041B00099999905000100200D6619005FF36E3C86
:1041C0000180FFFFB0F902C0434E4FEA4C414FEA75
:1041D000116C36F81C60B0F9047002963F4E7F04F3
:1041E00036F81C603E4D0C963E4E4FEA176C35F883
:1041F0001C5036F81C604FEA112C1FFA8CFC0F96ED
:10420000CDF804C0029EDDF830C03F0AC6EB0C01B9
:10421000DDF83CC0019EC5EB0C0CCDF830C006FBB0
:1042200001FC0C99BFB207FB01F7029905EB17459A
:1042300001EB1C46B6B2ADB20027C660056107703F
:1042400032E748F2010187E74FF0000C802137E7A1
:10425000751AB5F5803F00D37518B5F5803F21DBA1
:1042600040F6FF7109914FF6FF75D1E6C7EB0C01DF
:10427000B1F5803F01D30CEB07014FF6FF7C6145A0
:10428000A8BF6146C1F5FF477F3789B2BF110791CB
:104290000178C7F55257BFB200293FF492AE4FF0F4
:1042A000010C94E6E91201F6E17189B2B1F5805F83
:1042B00008BF40F6FF76ADB20CBF09960991A7E69C
:1042C00010B0BDE8F00F704789B245E7C0F818A0FC
:1042D0008AF30F0517E700BFB8520108BA52010868
:1042E000082501080A2501082DE9F00F4FF4C067E1
:1042F0004FF440664FF496650023302401224FF4BA
:10430000FA6B4FF4844A47F2485946F6843845F22E
:10431000F051476086614FF4D0574FF40056C562A4
:1043200040F6FE7C4FF44855A0F894B0A0F8B8A031
:10433000A0F85490A0F874804461846203608360A4
:10434000C360C361036203634363C3634364836401
:10435000436683668365C0F88430C0F8883083671D
:10436000C0F8A430C0F8A830C0F8983080F85020C9
:1043700080F8702080F89020C0F8B010C0F8B41019
:10438000A0F85270A0F87260A0F89250C0F840C037
:10439000BDE8F00F704700BF2DE9F00F9AB08346DB
:1043A0000B910D92002B00F0DC82DBF80440DBF86F
:1043B0001850DBF858601D49DBF82C70096816941A
:1043C0001795DBF88440DBF898501096DBF8A46072
:1043D000D0F8B000DBF8B4200F911897DBF8781014
:1043E000DBF84070039412950496DBF80C40DBF880
:1043F0002050DBF8346014901592DBF86400DBF891
:10440000682011911997DBF88810DBF8A8A00594B3
:1044100006950796DDF82CC0DBF848709C44089799
:10442000CDF84CC08146904681E100BF00010020DC
:10443000DBF83860DBF844700996DBF84C60DBF899
:104440000840DBF81020DBF81C00DBF82450DBF818
:1044500030300A970C96059E169F002C06FB07FC31
:104460004FEA1C360596CBF80C600BDD013CCBF80F
:1044700008403CB982EAE274A4EBE2742644059653
:10448000CBF80C60002AB8BF059F069EB8BF7C42DF
:10449000179FA8BF059C06FB07F200284FEA1232BF
:1044A0000692CBF820200CDD0138CBF81C0040B977
:1044B000069E85EAE572A2EBE57216440696CBF8F5
:1044C0002060002DB6BF069F069A7A4240F63D2531
:1044D00000289BF85000224408BF00252A440028E9
:1044E00040F05881DBF86000DBF85C60109C74B130
:1044F000B9F5805F40F33282A9F50065ED104FEA0F
:104500002914109F284404FB07F406EB642608FBDB
:1045100006F508FB00F0C04C09EBE539A145A2EB1C
:10452000E03006DBB9F5004FA8BF47F6FF74C0F2D4
:104530001C82CBF86440A146C9EB000000FB06F6E4
:10454000B54D08EBE638A84580F2C881CBF8685035
:10455000A846079C189D08EB221204FB05F0002BCF
:104560004FEA10300790CBF834000E920BDD013B80
:10457000CBF830303BB9099A002AB8BF52421044F8
:104580000790CBF83400099E43F23332002EB6BFB9
:10459000079F07987842002B9BF8703008BF0022D5
:1045A0000244002B40F0A581DBF88030DBF87C5022
:1045B000119878B1039CB4F5805F40F3C881039EE5
:1045C000A4F50064E4103011119F234400FB07F0B0
:1045D00005EB602501FB05F4039E01FB03F38E4808
:1045E00006EBE43686420396A2EBE33307DB039F38
:1045F000B7F5004FA8BF47F6FF70C0F2BB81CBF8FC
:10460000840003900398844C1B1A03FB05F501EB0F
:10461000E531A14280F25A81CBF8884021460F9CB7
:104620007E487F4B00FB04F07E4D9BF89040034496
:1046300001EB22122B601814002C40F00981DBF8EA
:10464000A040DBF89C70129D85B1049EB6F5805F9A
:1046500040F38081A6F500664FEAE60C049E351112
:10466000129E644405FB06F507EB65270AFB07F578
:10467000049E0AFB04F406EBE536674D0496AE4251
:10468000A0EBE43480F2D880CBF8A4500495049DCC
:10469000614E641B04FB07F70AEBE73AB24580F270
:1046A000B080CBF8A860B246089E199F06FB07F0C1
:1046B000000B0890CBF848000A9800280CDD013860
:1046C000CBF8440040B90C98089C0028B8BF404281
:1046D00004440894CBF848400C9D159F002DB8BFAA
:1046E000089E149DB8BF74420E9EA8BF089C07FB8D
:1046F00002F205FB06F00AFB04F4D21302EBE032EF
:1047000002EBE43212F5004F41DDB2F5004FA8BFD5
:1047100047F6FF72C0F22C810D9FDDF82CC0139874
:1047200027F8022B84450D9700F01B810F930B98FF
:1047300010F8013B9B070B907FF57AAEDBF83C202D
:10474000BBF8B87001320A920C970A9FDBF8004060
:10475000DBF81400DBF82830334DCBF844700C9FA5
:1047600043F233360134013001334FF4F022CBF8F9
:104770000840CBF81C00CBF83030CBF82450CBF8F5
:104780004C70CBF81020CBF83860099663E648F2FD
:104790000102C1E7BBF95260244C7604370E04F1E4
:1047A000020C3CF817C0BBF95450CDF838C06D046A
:1047B000DFF880C01E48360A34F81740B6B22F0E14
:1047C00030F8170001963CF817700E9E2D0ADDF8A0
:1047D00004C0361BADB202973F1A0E9600950CFB33
:1047E00006F605FB07F504EB164600EB1540B6B2DE
:1047F00080B20024CBF85C60CBF860008BF85040AE
:1048000074E6BAF5004FA9BF47F6FF70CBF8A8A031
:10481000CBF8A800824647E70180FFFF0D6619002C
:104820005FF36E3C000100200080FFFFB8520108DA
:10483000082501080A2501080498B0F5004FA9BF12
:1048400047F6FF70CBF8A400CBF8A40004901EE755
:10485000BBF99270494D7F044FEA176C35F81C5034
:10486000BBF994600F95464D760435F81CC0454C55
:10487000454DCDF824C04FEA166C34F81C4035F88D
:104880001CC00F9DCDF808C0DDF824C03F0AC5EB61
:104890000C0C029DCDF824C0360AC4EB050C099D12
:1048A000BFB2B6B207FB05F706FB0CF6DDF83CC05D
:1048B00004EB16440CEB1747BFB2A4B20025CBF8AB
:1048C0009C70CBF8A0408BF89050BCE6B1F5004F3F
:1048D000A8BF47F6FF71CBF88810A0E6B8F5004FE7
:1048E000A9BF47F6FF70CBF86880CBF86800804618
:1048F0002FE6BBF972502148BBF97440214B6D047F
:104900002E0E6404871C37F8167030F8160003F179
:10491000020C260E33F816303CF816602D0A240AD5
:10492000F61AADB23F1AA4B205FB07F504FB06F474
:1049300000EB154503EB1443ADB29BB24FF0000CF6
:10494000CBF87C50CBF880308BF870C030E6002478
:10495000802039E64FF0000C802581E60025802478
:10496000CFE51AB0BDE8F00F7047CBF86490E3E5EF
:1049700092B2D1E6CBF8847044E600BFB852010889
:10498000BA520108082501080A2501082DE9F00F8F
:104990004FF4406C4FF4C0684FF496674FF4FA66DA
:1049A0004FF4844500233024012247F2485B46F649
:1049B000843A45F2F05140F6FE79C0F80480C0F820
:1049C00018C04FF4D058C762A0F894604FF448570D
:1049D0004FF40046A0F8B8504FF4005C4FF6FF7556
:1049E000A0F854B0A0F874A04461846203608360AE
:1049F000C360C361036203634363C363436483644B
:104A0000436683668365C0F88430C0F88830836766
:104A1000C0F8A430C0F8A830C0F8983080F8502012
:104A200080F8702080F89020C0F8B010C0F8B41062
:104A3000C0F84090A0F85280A0F89270A0F8C8602A
:104A4000C0F8C050A0F8C430A0F8C630A0F872C0BA
:104A5000BDE8F00F704700BF2DE9F00F9CB006468F
:104A60000B911092002B00F0B7834068B269B46DCF
:104A7000756EF76A154919901A92B06FD6F88420AE
:104A800015940295D6F89840D6F8A4501B97F7686D
:104A9000DDF82C80D1F800901690B16E0392179437
:104AA000D6F888200495D6F8A8400597306A756B2B
:104AB000B76C9844CDF82890069007950897CDF8E4
:104AC000608089469346A24687E100BF000100202E
:104AD000D6F8C040D6F8B000B26B96F8703011909E
:104AE000601000F57F5001920E9396F89020336C81
:104AF000D6F8B4103F3000EBA40013920F93726C01
:104B0000F36C14901291B7683069F569716A96F880
:104B10005080346B09920D93059A199B002F02FB6C
:104B200003FC4FEA1C320592F26009DD013FB760D9
:104B300037B980EAE077A7EBE0773A440592F26074
:104B40000028B8BF059B069AB8BF58421A9BA8BF59
:104B5000059802FB03F7002D4FEA173706973762D7
:104B60000ADD013DF5613DB9069A81EAE177A7EBDF
:104B7000E1773A44069232620029B6BF069B069955
:104B80005942002D40F63D2508440CBF4FF0000C63
:104B9000AC468444B8F1000F40F0FA81326EF56DF6
:104BA000159F7FB10298B0F5805F40F3BA82029BF7
:104BB000A0F50060C0101911159F024401FB07F118
:104BC00005EB612509FB05F0029B09FB02F2BD49DB
:104BD00003EBE0338B420293ACEBE23207DB029F44
:104BE000B7F5004FA8BF47F6FF71C0F2F9827166B2
:104BF00002910298121A02FB05F5B24809EBE53959
:104C0000814580F25082B066814607991B9B09EB73
:104C10002C1C01FB03F2002C4FEA12320792726344
:104C2000CDF830C00ADD013C34633CB9019A079DE0
:104C3000002AB8BF5242154407957563019F43F29D
:104C40003331002FB6BF0798079B43420E9A002CC2
:104C500008BF00211944002A40F02F82D6F8803086
:104C6000F46F169D75B1039FB7F5805F40F35682D0
:104C7000A7F50060C0103A11169D034402FB05F22F
:104C800004EB62240BFB04F0039F0BFB03F38D4A40
:104C900007EBE03797420397A1EBE33307DB039879
:104CA000B0F5004FA8BF47F6FF72C0F29B82C6F86E
:104CB00084200392039A83489B1A03FB04F40BEBB2
:104CC000E43B834580F2E481C6F8880083467E4B4E
:104CD0000A9C7E4D03FB04F27D4B139F13440BEBA8
:104CE00021112B601A14002F40F09581D6F8A000F6
:104CF000D6F89C70179C84B1049DB5F5805F40F395
:104D00000982A5F500654FEAE50C049D2C11179D5D
:104D1000604404FB05F407EB64270AFB07F4049DD9
:104D20000AFB00F005EBE435664C0495A542A2EBC6
:104D3000E03080F26481C6F8A4400494049C614D84
:104D4000001B00FB07F70AEBE73AAA4580F24C810B
:104D5000C6F8A850AA46089F0F98099A07FB00F5C5
:104D6000002A4FEA15350895B56409DD501E7064B8
:104D700030B90D9A002AB8BF524215440895B5645F
:104D80000D9C129F002CB8BF089D119CB8BF6A42B1
:104D90000C9DA8BF089A07FB01F104FB05F00AFB74
:104DA00002F2C91301EBE031149F01EBE23207FB81
:104DB00002F0001410F5004FDDF84080CCBF80B247
:104DC00048F2010028F8020BDDF82CC01898CDF845
:104DD0004080844500F000820A93DDF82CC01CF866
:104DE000013B9B07CDF82CC07FF572AE0A9C364B79
:104DF000374A03FB04F3B6F8BA001A44002AB6F99E
:104E0000C6404FEAA00080F2B281231803F5FF41AB
:104E10007F314FF6FE75A94240F29581231A13F5B2
:104E2000004F00F390814FF43A514FF4E4534FF4A4
:104E3000B45048F2010496F85050002D40F08181A2
:104E4000B6F85270C71B18BF012796F8705086F845
:104E50005070A6F85200002D40F06681B6F87250EE
:104E600096F890005D1B18BF012586F87050A6F8D3
:104E70007230002840F06281B6F89230CB1A18BF29
:104E800001231393104BA6F8921003FB02F2104B70
:104E9000B6F8BC1013441A1401FB02F2B6F8C8109D
:104EA000139FDFF8288011EB224286F89070A6F855
:104EB000C640C8F8003000F17B81B2F5803F80F237
:104EC000608107E00180FFFF0D66190000010020EE
:104ED0005FF36E3CC2F34F1101F5CF47501001F55F
:104EE000E24800F57F50951304379410BFB208F1E3
:104EF00048083F3005F6FC751FFA88F8C4F5AB4C3E
:104F000004F5AB410C972018AFB2CDF82880C6F855
:104F1000C02014900CF1700C70310F971FFA82F8BA
:104F2000B06AB6F8B84001220D948418F06B376867
:104F30001044099075690C98A6F8C880DDF828809F
:104F4000174415440E92C6F8B410A6F85480A6F87B
:104F5000740012910F98099986F8502086F87020F5
:104F60009046A24A0A930D9B3064716472621146A6
:104F70004FF4F02043F23332C6F8B0C0CDF844C04D
:104F8000B760F5613463F3643061B2630192C3E5E5
:104F9000B6F952509649B6F954006D042F0E4004EC
:104FA00001F10208934A944B31F8171038F8178032
:104FB000070E32F8172033F817702D0A000AC1EBDC
:104FC0000808BF1AADB280B205FB08F500FB07F078
:104FD00001EB154502EB1042ADB292B20021F5652E
:104FE000326686F85010DBE5BAF5004FA9BF47F6E8
:104FF000FF72C6F8A8A0C6F8A8209246ABE6049AAD
:10500000B2F5004FA9BF47F6FF72C6F8A420C6F854
:10501000A420049292E6B6F99270754C7F044FEA90
:10502000176C04F1020838F81C80B6F99450CDF8DA
:1050300028806D04DFF8C0816E4834F81C404FEAC8
:10504000156C30F81C0038F81CC02D0ACDF838C09B
:10505000DDF828C0ADB23F0AC4EB0C08BFB20A9518
:105060000E9D139707FB08F7DDF82880C0EB050CB1
:1050700008FB0CF504EB174700EB1540BFB280B2FC
:105080000024C6F89C70C6F8A00086F8904031E66F
:10509000BBF5004FA9BF47F6FF73C6F888B0C6F846
:1050A00088309B4613E6B9F5004FA9BF47F6FF725B
:1050B000C6F86890B2669146A7E5B6F972404C4AC8
:1050C000B6F974004B4B6404250E4004971C37F866
:1050D000157032F8152003F1020C050E33F8153067
:1050E0003CF81550240A000AED1AA4B2BF1A80B287
:1050F00004FB07F400FB05F002EB144403EB104340
:10510000A4B29BB24FF0000CF467C6F8803086F86A
:1051100070C0A6E54FF0000C8024F8E50020802246
:10512000AAE50020802147E596F89000012586F841
:105130007050A6F8723000283FF49EAE01251395FA
:10514000A0E6012781E647F6FF74A342B8BF1C46DC
:10515000C4EBC401C1F30F2101F5D05001F5005596
:1051600001F54851A4B280B2ABB289B263E6231A0A
:1051700003F5FF417F314FF6FE75A942E3D92318AD
:105180004DE64FF6FF724FF6FD7C46F68371C6F88A
:10519000C020904640F6FF7047F64712CDF850C049
:1051A0000C910F900A9249F2EF5141F2F15CB7E68F
:1051B000002245F2F051C6F8C020904643F6FF7039
:1051C00040F6FC7246F2847447F248158C461490FF
:1051D0000F920C940A95A3E61CB0BDE8F00F70473F
:1051E000776606E5C6F8840064E500BF0080FFFF2F
:1051F000B8520108082501080A250108D0F8E42062
:10520000F0B42D4C930D34F81310023434F91340DC
:105210000BB2E41AC2F38F1303FB04F4B0F90430A9
:1052200001EB244189B2002B8CB224DDC3EB431087
:10523000C3EBC020C01324B200F5006000FB04F0F3
:105240001E4E00F10040850D36F81520023636F965
:10525000156015B2751BC0F38F1000FB05F002EB53
:10526000204212B2141B03FB04F3F0BC01EBE33148
:1052700088B200B2704712F1804254BF52006FEA08
:1052800042020F4F960D37F81650023737F9166065
:1052900028B2301AC2F38F1202FB00F205EB22454E
:1052A0002DB224B22C1B5B4203FB04F3F0BC01EBD8
:1052B000E33188B200B2704720390108288B00081A
:1052C000142D01088388B0F8FC2030B4934233D009
:1052D000A3F5004292B2012A31D94FF00061C2F524
:1052E000803591FBF2F491FBF5F1C0F8F840C0F87D
:1052F000F4101204C0F8F020A0F8FC30D0F8E4302C
:10530000934210D2D0F8F8201B0B02FB03F330BC01
:10531000D80B002BB6BFC0F5FF40A0F500407F3092
:1053200080B200B270479B1AD0F8F4101B0B01FB3F
:1053300003F303F10043EAE7D0F8F020DEE74FF093
:1053400000644FF40061C0F8F840C0F8F410D0E7F2
:10535000B0F90420D0F8E83002F5004212045B00F6
:105360009A4204D3D1438B428CBFDB431346D0F81F
:10537000E40048F2010147F6FF72834294BF0846F9
:10538000104600B2704700BFB0F90430D0F8E420F6
:1053900003F50043C3EB03131B1402339BB24FF618
:1053A000FF70002A03F1FF3190FBF1F1ACBF500018
:1053B0006FEA4200000C03FB00F089B2000C00FB16
:1053C00001F0A0F5004000B2704700BFD0F8E42023
:1053D000D0F8E810F0B48A42D0F80051D0F8043187
:1053E0002AD31C462B46E41A550C05FB04F5B0F9EC
:1053F0000410ED13002905EB03002BDB1B4E170EE9
:10540000B51C35F817C036F81750C2F30F22C5EB9C
:105410000C0602FB06F205EB1245C5F34E0505FB33
:1054200004F403EBE4331B1A01FB03F1F0BC00EBC3
:10543000E13080B200B270470D4D0E4E2C680E491F
:1054400006FB04F421440C14C0F800312960C0F8B4
:105450000441C8E701F5FF417F3101FB05F1F0BCD4
:1054600003EBE13398B200B2704700BFB4500108BB
:10547000000100200D6619005FF36E3C0269F0B474
:105480002D4C930D34F81310023434F913400BB241
:10549000E41AC2F38F1303FB04F4B0F9043001EBF8
:1054A000244189B2002B8CB224DDC3EB4310C3EB43
:1054B000C020C01324B200F5006000FB04F01F4EB2
:1054C00000F10040850D36F81520023636F91560DA
:1054D00015B2751BC0F38F1000FB05F002EB2042E4
:1054E00012B2141B03FB04F3F0BC01EBE33188B2EE
:1054F00000B2704712F1804254BF52006FEA42027C
:105500000F4F960D37F81650023737F9166028B24C
:10551000301AC2F38F1202FB00F205EB22452DB2C6
:1055200024B22C1B5B4203FB04F3F0BC01EBE33120
:1055300088B200B2704700BF20390108288B0008EC
:10554000142D01088388B0F8402030B493422DD048
:10555000A3F5004292B2012A2AD94FF00061C2F5A8
:10556000803591FBF2F491FBF5F1C4638163120481
:105570004263A0F84030036993420FD2C26B1B0B09
:1055800002FB03F330BCD80B002BB6BFC0F5FF40C5
:10559000A0F500407F3080B200B270479B1A816B4B
:1055A0001B0B01FB03F303F10043EBE7426BE2E764
:1055B0004FF000644FF40061C4638163D7E700BF1C
:1055C000B0F90420436902F5004212045B009A42DC
:1055D00004D3D1438B428CBFDB431346006948F2AE
:1055E000010147F6FF72834294BF0846104600B29D
:1055F000704700BFB0F90430026903F50043C3EB04
:1056000003131B1402339BB24FF6FF70002A03F101
:10561000FF3190FBF1F1ACBF50006FEA4200000C8B
:1056200003FB00F089B2000C00FB01F0A0F5004084
:1056300000B2704702694169F0B48A42456C836CDC
:105640002AD31C462B46E41A550C05FB04F5B0F989
:105650000410ED13002905EB030029DD1A4E170E87
:10566000B51C35F817C036F81750C2F30F22C5EB3A
:105670000C0602FB06F205EB1245C5F34E0505FBD1
:1056800004F403EBE4331B1A01FB03F1F0BC00EB61
:10569000E13080B200B270470C4D0D4E2C680D49C0
:1056A00006FB04F421440C14436429608464CAE7B3
:1056B00001F5FF417F3101FB05F1F0BC03EBE13364
:1056C00098B200B2704700BFB4500108000100203A
:1056D0000D6619005FF36E3C836A70B41C4C9A0D22
:1056E00034F81210023434F912400AB2C3F38F13A3
:1056F000A21A03FB02F2B0F9043001EB2242C3EB21
:105700004314C3EBC42492B2E41311B204F5006451
:1057100004FB01F40F4E04F10044A50D36F815000A
:10572000023636F9156005B2751BC4F38F1404FBFD
:1057300005F403F5FF4300EB244000B27F33411A28
:105740005B1003FB01F370BC02EBE33000B2704767
:1057500020390108288B0008836A1B499A0D70B410
:1057600031F81240023131F9121022B2891AC3F312
:105770008F1202FB01F113F1804354BF5B006FEA0B
:105780004303124D04EB21419C0DB0F9042035F880
:105790001400023535F9145004B22C1BC3F38F13D7
:1057A00003FB04F389B202F5FF4200EB23400EB283
:1057B0007F3200B2801B521002FB00F270BC01EB82
:1057C000E23000B2704700BF20390108142D0108F3
:1057D000836A70B41C4C9A0D34F81210023434F9F8
:1057E00012400AB2C3F38F13A21A03FB02F2B0F9FC
:1057F000043001EB2242C3EB4314C3EBC42492B246
:10580000E41311B204F5006404FB01F40F4E04F13B
:105810000044A50D36F81500023636F9156005B2BC
:10582000751BC4F38F1404FB05F403F5FF4300EB71
:10583000244000B27F33411A5B1003FB01F370BCBC
:1058400002EBE33000B27047203901082C47010811
:105850008388B0F8402030B493422DD0A3F50042A5
:1058600092B2012A2AD94FF00061C2F5803591FB2E
:10587000F2F491FBF5F1C463816312044263A0F872
:105880004030836A93420FD2C26B1B0B02FB03F3BF
:1058900030BCD80B002BB6BFC0F5FF40A0F50040D0
:1058A0007F3080B200B270479B1A816B1B0B01FBEB
:1058B00003F303F10043EBE7426BE2E74FF00064D0
:1058C0004FF40061C4638163D7E700BFB0F90420DF
:1058D000C36A02F5004212045B009A4204D3D1432A
:1058E0008B428CBFDB431346806A48F2010147F6C6
:1058F000FF72834294BF0846104600B2704700BF53
:10590000826AC16AF0B48A42456C836C2AD31C4611
:105910002B46E41A550C05FB04F5B0F90410ED1301
:10592000002905EB030029DD1A4E170EB51C35F8CA
:1059300017C036F81750C2F30F22C5EB0C0602FB56
:1059400006F205EB1245C5F34E0505FB04F403EB27
:10595000E4331B1A01FB03F1F0BC00EBE13080B231
:1059600000B270470C4D0D4E2C680D4906FB04F437
:1059700021440C14436429608464CAE701F5FF41A3
:105980007F3101FB05F1F0BC03EBE13398B200B2CB
:10599000704700BFB4500108000100200D661900D7
:1059A0005FF36E3CD0F8F43070B41D4C9A0D34F8AF
:1059B0001210023434F912400AB2C3F38F13A21A40
:1059C00003FB02F2B0F9043001EB2242C3EB4314B3
:1059D000C3EBC42492B2E41311B204F5006404FBD7
:1059E00001F4104E04F10044A50D36F815000236FE
:1059F00036F9156005B2751BC4F38F1404FB05F46A
:105A000003F5FF4300EB244000B27F33411A5B10E3
:105A100003FB01F370BC02EBE33000B2704700BF40
:105A200020390108288B0008D0F8F4301A499A0D63
:105A300070B431F81240023131F9121022B2891AD1
:105A4000C3F38F1202FB01F113F1804354BF5B00DB
:105A50006FEA4303114D04EB21419C0DB0F9042082
:105A600035F81400023535F9145004B22C1BC3F379
:105A70008F1303FB04F389B202F5FF4200EB2340CE
:105A80000EB27F3200B2801B521002FB00F270BCDB
:105A900001EBE23000B2704720390108142D0108F3
:105AA000D0F8F43070B41D4C9A0D34F81210023452
:105AB00034F912400AB2C3F38F13A21A03FB02F2A5
:105AC000B0F9043001EB2242C3EB4314C3EBC4240E
:105AD00092B2E41311B204F5006404FB01F4104E19
